:020000040000FA
:04000000B9EF57F00D
:040008002CEF54F095
:0800180094EF42F0D9CFE5FF9F
:10002000E1CFD9FF00C0E5FF01C0E5FF02C0E5FF59
:1000300003C0E5FF04C0E5FF05C0E5FF02013F6B1B
:10004000020E016E410E006E800E026E0250E56ED1
:100050000150E56E0050E56E03EC51F0030EE12611
:1000600041C200F0016A0050020A02E1015002E0C0
:100070003AEF03F00F0E006E020E026E410E016E9B
:10008000800E036E0350E56E0250E56E0150E56E82
:1000900003EC51F0030EE12600060050EDE10B01E8
:1000A0001EA516D0040E006E020E026E410E016EE9
:1000B000800E036E0350E56E0250E56E0150E56E52
:1000C00003EC51F0030EE12600060050EDE116D0DE
:1000D0000B0E026E2B0E016E800E036E000EE56E8F
:1000E000040EE56E0350E56E0250E56E0150E56EBC
:1000F000AEEC48F0050EE1260B013781080E006ECC
:10010000020E026E410E016E800E036E0350E56E0C
:100110000250E56E0150E56E03EC51F0030EE1264E
:1001200000060050EDE1016A01C002F0036A000E12
:10013000035C02E1060E025C24E2020E036E410E35
:10014000026E800E046E0450E56E0350E56E0250A0
:10015000E56E03EC51F0030EE126F50E0124026E6C
:10016000036A080E032202C0E9FF03C0EAFFEFCFD3
:1001700002F002014151021802E071EF03F0012A7E
:10018000D3D7CE0E006E020E026E410E016E800EAF
:10019000036E0350E56E0250E56E0150E56E03EC10
:1001A00051F0030EE12600060050EDE1016A020E57
:1001B000036E410E026E800E046E0450E56E035015
:1001C000E56E0250E56E03EC51F0026E030EE1267F
:1001D0000250D8B43AEF03F041C202F0036A025071
:1001E000010A03E1035001E158D00250030A03E180
:1001F000035001E19CD00250330A03E1035001E1B6
:100200005AD10250350A02E103500EE00250360A7C
:1002100003E1035001E1F2D00250FF0A03E1035071
:1002200001E146D107EF03F0020E036E410E026EAC
:10023000800E046E0450E56E0350E56E0250E56ECC
:1002400003EC51F0030EE12641C202F0036A0250B2
:10025000010A02E1035002E071EF03F0020E036EA7
:100260003F0E026E800E046E0450E56E0350E56E84
:100270000250E56E03EC51F0030EE1260B011EA5C2
:1002800036EF03F03FC202F0036A0250020A04E1B3
:10029000035002E171EF03F0E9D1020E036E410E4B
:1002A000026E800E046E0450E56E0350E56E02503F
:1002B000E56E03EC51F0030EE12641C202F0036A41
:1002C0000250040A02E1035002E071EF03F00B0157
:1002D0001EA516D0040E006E020E036E410E026EB5
:1002E000800E046E0450E56E0350E56E0250E56E1C
:1002F00003EC51F0030EE12600060050EDE1B6D10B
:100300000B0E036E330E026E800E046E000EE56E51
:10031000040EE56E0450E56E0350E56E0250E56E86
:10032000AEEC48F0050EE1260B0137859FD1020E99
:10033000036E400E026E800E046E0450E56E035094
:10034000E56E0250E56E03EC51F0030EE12640C26B
:1003500002F0036A000E035C02E1040E025CD8A006
:10036000C0D10B011EA516D0040E006E020E036E46
:10037000410E026E800E046E0450E56E0350E56E71
:100380000250E56E03EC51F0030EE126000600502A
:10039000EDE116D00B0E036E2F0E026E800E046E72
:1003A000000EE56E040EE56E0450E56E0350E56E3A
:1003B0000250E56EAEEC48F0050EE1260B013783E6
:1003C000FC0E0201402740C202F002C003F0020608
:1003D00002C040F20350D8B444D1020E046E410E64
:1003E000036E800E056E0550E56E0450E56E0350F9
:1003F000E56E03EC51F0030EE126E7D7020E046E22
:10040000410E036E800E056E0550E56E0450E56EDC
:100410000350E56E03EC51F0030EE12641C203F0F8
:10042000046A0350040A02E1045001E05AD10B0EA1
:10043000046EB50E036E800E056E0550E56E045019
:10044000E56E0350E56E03EC51F0030EE1260B0E52
:10045000046EB40E036E800E056E0550E56E0450FA
:10046000E56E0350E56E03EC51F0030EE1260B0E32
:10047000046EB30E036E800E056E0550E56E0450DB
:10048000E56E0350E56E03EC51F0030EE1260B0E12
:10049000046EB20E036E800E056E0550E56E0450BC
:1004A000E56E0350E56E03EC51F0030EE126DED05D
:1004B000010E016EDBD0020E046E410E036E800E43
:1004C000056E0550E56E0450E56E0350E56E03ECD5
:1004D00051F0030EE12641C203F0046A0350040AFE
:1004E00002E1045001E0FDD00B011EA515D0040E61
:1004F000006E020E046E410E036E800E056E0550F6
:10050000E56E0450E56E0350E56E03EC51F0030E0A
:10051000E126002EEED7AAD00B0E036E260E006E3B
:10052000800E046E0450E56E0350E56E0050E56EDB
:1005300003EC51F0030EE1260B0E036E250E006E48
:10054000800E046E0450E56E0350E56E0050E56EBB
:1005500003EC51F0030EE1260B0E036E240E006E29
:10056000800E046E0450E56E0350E56E0050E56E9B
:1005700003EC51F0030EE1260B0E036E230E006E0A
:10058000800E046E0450E56E0350E56E0050E56E7B
:1005900003EC51F0030EE1260B0123390F0B006E23
:1005A0000B012439036EF00B031A002603320032CC
:1005B0000B012551E838E840F80B03120B012539EF
:1005C0000F0B046E0B012639056EF00B051A04267D
:1005D0000532043200500B01235D006E03500B0105
:1005E0002459036E04500B012559046E05500B016C
:1005F0002659056E00500B01236F03500B01246F29
:1006000004500B01256F05500B01266F2FD0020EF1
:10061000036E400E006E800E046E0450E56E0350B3
:10062000E56E0050E56E03EC51F0030EE12640C28A
:1006300000F000C003F0000600C040F2035014E0D8
:10064000020E046E410E036E800E056E0550E56EBF
:100650000450E56E0350E56E03EC51F0030EE12605
:10066000E8D702C040F202D000C040F20150D8B436
:10067000D7EF00F03FC200F0016A0050020A16E115
:10068000015001E013D00B01B2510B01276F0B0198
:10069000B3510B01286F0B01B4510B01296F0B01F2
:1006A000B5510B012A6F0B011E8516D00B01275186
:1006B0000B01B2190FE10B0128510B01B3190AE12B
:1006C0000B0129510B01B41905E10B012A510B0152
:1006D000B51902E002013F6BC8EC56F002013F5130
:1006E00003D0C8EC56F0E86AE4CF05F0E4CF04F09C
:1006F000E4CF03F0E4CF02F0E4CF01F0E4CF00F068
:10070000E4CFD9FF1200D9CFE5FFE1CFD9FF00C078
:10071000E5FF01C0E5FF02C0E5FF03C0E5FF04C03F
:10072000E5FF05C0E5FF06C0E5FF07C0E5FF08C01F
:10073000E5FF006A00C001F0026A000E025C02E1FF
:10074000010E015CD8B0E3EF06F0006A1DCB01F0AA
:100750000D0E015CD8B0E0EF06F009C0E5FF0AC05D
:10076000E5FF0A6A01340A36E8340A36FC0B096EE2
:10077000000EFB6E070EFA6E900E09260A50FA2242
:10078000D8B0FB2A0950E4CF0AF0E4CF09F0F96EA3
:10079000E2EF03F0E4EF03F007EF04F078EF04F08A
:1007A000BFEF04F00AEF05F0B1EF05F036EF06F009
:1007B0006CEF06F036EF06F06CEF06F036EF06F061
:1007C0006CEF06F0E0EF06F0000EE56E430EE56E0E
:1007D000000EE56E000EE56E000EE56E000EE56E95
:1007E000440EE56ECCEC27F0016E070EE1260150B9
:1007F0000B011C6F1CCB01F0026A0150FF0A04E1DF
:10080000025002E1E0EF06F0020E0B011D6F3C0EFC
:100810000B01236F0B01246B0B01256B0B01266B66
:100820000B01376B0B011E910B011E95B4EC55F0BB
:10083000016E0150D8B4E0EF06F00B011C51E56EDB
:1008400032EC50F0016EF3CF02F0E12A010E025CAF
:1008500002E12C0E015CD8A0E0EF06F0016A0B016A
:100860001EB9012A010E011A0150010BE838F46E7D
:100870000B011E51EF0BF4100B011E6F0B011C51ED
:100880000E0DF3CF01F0026A600E0126000E022267
:10089000000EE56E0A0EE56EFF0EE56E0250E56E87
:1008A0000150E56E49EC4BF0050EE126000EE56EB9
:1008B000010EE56EC2EC12F0020EE12601EC57F0DB
:1008C000016EF3CF02F0F4CF03F0E9CF04F0015052
:1008D0000B011F6F02500B01206F03500B01216FA2
:1008E00004500B01226F030E0B011D6FE0EF06F0A9
:1008F0000B011C51E56E38EC53F0016EF3CF02F0A2
:10090000E12A000E025C02E1FA0E015C28E201EC31
:1009100057F0016EF3CF02F0F4CF03F0E9CF04F00B
:100920000B011F51015E0B012051025A0B01215195
:10093000035A0B012251045A000E045C08E1010E17
:10094000035C05E13D0E025C02E1E40E015CD8A00F
:10095000E0EF06F0020E0B011D6FE0EF06F00B0159
:100960001E870EEC00F0016E026A0150020A02E1DD
:10097000025002E0E0EF06F0040E0B011D6F0B01C8
:100980001C51E56E32EC50F0016EF3CF02F0E12A1B
:10099000010E025C02E1020E015CD8A0E0EF06F05D
:1009A0000B011C510E0DF3CF01F0026A600E0126FF
:1009B000000E0222000EE56E0A0EE56EFF0EE56ED9
:1009C0000250E56E0150E56E49EC4BF0050EE12654
:1009D000000EE56E030EE56EC2EC12F0020EE1268B
:1009E00001EC57F0016EF3CF02F0F4CF03F0E9CF42
:1009F00004F001500B011F6F02500B01206F0350D8
:100A00000B01216F04500B01226F050E0B011D6FAE
:100A1000E0EF06F00B011C51E56E38EC53F0016E6F
:100A2000F3CF02F0E12A000E025C02E1FA0E015C53
:100A300026E201EC57F0016EF3CF02F0F4CF03F0A1
:100A4000E9CF04F00B011F51015E0B012051025A46
:100A50000B012151035A0B012251045A000E045C70
:100A600008E1010E035C05E13D0E025C02E1E40ECB
:100A7000015CD8A0A5D1020E0B011D6FA1D10EEC17
:100A800000F0016E026A0150050A02E1025007E01F
:100A90000150060A03E1025001E15FD091D10B0140
:100AA0001C51E56E7AEC50F0E12A0B011C6901EC57
:100AB00057F0016EF3CF02F0F4CF03F0E9CF04F06A
:100AC00001500B011F6F02500B01206F03500B01EF
:100AD000216F04500B01226F060E0B011D6F0B01DD
:100AE0001E830B011E810B0137A110D00B012B516E
:100AF0000801C86F0B012C510801C96F0B012D5162
:100B00000801CA6F0B012E510801CB6F0B0137A5ED
:100B100010D00B0133510801CC6F0B013451080187
:100B2000CD6F0B0135510801CE6F0B013651080115
:100B3000CF6F0B0137A344D10B012F510801D06FA8
:100B40000B0130510801D16F0B0131510801D26FF7
:100B50000B0132510801D36F33D1020E0B011D6F0F
:100B60002FD101EC57F0016EF3CF02F0F4CF03F078
:100B7000E9CF04F01FCB05F020CB06F021CB07F026
:100B800022CB08F00550015E0650025A0750035A66
:100B90000850045A000E045C08E1000E035C05E1F5
:100BA0009E0E025C02E1F20E015CD8A009D123CBBB
:100BB00001F024CB02F025CB03F026CB04F0000E8D
:100BC000045C08E1000E035C05E1000E025C02E13A
:100BD000020E015C29E3F20E05269E0E0622000E8F
:100BE0000722000E082205500B011F6F06500B0153
:100BF000206F07500B01216F08500B01226FFF0E71
:100C00000126FF0E0222FF0E0322FF0E04220150D6
:100C10000B01236F02500B01246F03500B01256F52
:100C200004500B01266FCCD0000EE56E430EE56E2E
:100C3000000EE56E000EE56E000EE56E000EE56E30
:100C4000440EE56ECCEC27F0016E070EE126015054
:100C50000B011C6F1CCB01F0026A0150FF0A03E17B
:100C6000025001E1ADD0070E0B011D6F0B011C51AD
:100C7000E56E32EC50F0016EF3CF02F0E12A010E86
:100C8000025C02E1020E015CD8A09AD0010EE56E72
:100C9000030EE56EC2EC12F0020EE1260B011E956A
:100CA00001EC57F0016EF3CF02F0F4CF03F0E9CF7F
:100CB00004F001500B011F6F02500B01206F035015
:100CC0000B01216F04500B01226F1DCB01F0012A93
:100CD00001500B011D6F74D00B011C51E56E38ECF7
:100CE00053F0016EF3CF02F0E12A000E025C02E144
:100CF000FA0E015C30E201EC57F0016EF3CF02F026
:100D0000F4CF03F0E9CF04F00B011F51015E0B019A
:100D10002051025A0B012151035A0B012251045A4E
:100D2000000E045C08E1010E035C05E13D0E025C6F
:100D300002E1E40E015CD8A043D00B011D29016E35
:100D400001500B011D6F0D0E015CD8A039D0020EB1
:100D50000B011D6F35D00EEC00F0016E026A0150E0
:100D6000050A02E1025006E00150060A29E102509C
:100D700024E026D00B011C51E56E7AEC50F0E12AFC
:100D80000B011C6901EC57F0016EF3CF02F0F4CFB8
:100D900003F0E9CF04F001500B011F6F02500B016B
:100DA000206F03500B01216F04500B01226F060EC0
:100DB0000B011D6F0B011E8303D0020E0B011D6F73
:100DC000002A9AEF03F0E4CF08F0E4CF07F0E4CF75
:100DD00006F0E4CF05F0E4CF04F0E4CF03F0E4CF75
:100DE00002F0E4CF01F0E4CF00F0E4CFD9FF12002D
:100DF000D9CFE5FFE1CFD9FF00C0E5FF01C0E5FF96
:100E000002C0E5FF03C0E5FF04C0E5FF05C0E5FF44
:100E100006C0E5FF07C0E5FF08C0E5FF09C0E5FF24
:100E20000AC0E5FF0BC0E5FF0CC0E5FF0DC0E5FF04
:100E30000EC0E5FF0FC0E5FF10C0E5FF11C0E5FFE4
:100E400012C0E5FF13C0E5FF14C0E5FF15C0E5FFC4
:100E500016C0E5FF17C0E5FF18C0E5FF19C0E5FFA4
:100E60001AC0E5FF020EDBCF00F0030EDBCF01F06E
:100E7000040EDBCF02F0050EDBCF03F0060EDBCF56
:100E800004F0070EDBCF05F0080EDBCF06F0090EED
:100E9000DBCF07F00A0EDBCF08F002014A510E0D3E
:100EA000F3CF09F00A6A600E0926000E0A220A50E2
:100EB0000A6E0950096E800E0B6E0950040F0C6EFD
:100EC000000E0A200D6E000E0B200E6E020E106E2C
:100ED000390E0F6E800E116E090E136EC80E126E53
:100EE000800E146E010E166E000E156E800E176EBB
:100EF000020E196E000E186E800E1A6E0850E56E06
:100F00000750E56E0650E56E1A50E56E1950E56E15
:100F10001850E56E1750E56E1650E56E1550E56EEB
:100F20001450E56E1350E56E1250E56E1150E56EEB
:100F30001050E56E0F50E56E94EC0BF00F0EE126AD
:100F4000C8EC56F039C206F0076A0650010A02E101
:100F5000075007E00650030A03E1075001E155D0AE
:100F60008DD100C0E9FF01C0F3FF025012EC57F031
:100F7000066E0650E56E32EC50F0066EF3CF07F0C9
:100F8000E12A06500710EDE03CEC48F002014A511E
:100F90000E0DF3CF06F0076A600E0626000E07223C
:100FA00007500A6E0650096E800E0B6E0B50E56EF0
:100FB0000A50E56E0950E56EAEEC4BF0030EE126EB
:100FC000000EE56E850EE56ED60EE56E000EE56E42
:100FD000DEEC4AF0040EE126090E076EC80E066E1E
:100FE000800E086E0250E56E0150E56E0050E56E11
:100FF0000850E56E0750E56E0650E56E11EC1EF0E8
:10100000060EE126D4EC46F045D1000EE56E850EC5
:10101000E56EE60EE56E000EE56EDEEC4AF0040EBF
:10102000E1260B0E076EFD0E066E800E086E0E504A
:10103000E56E0D50E56E0C50E56E0850E56E0750FC
:10104000E56E0650E56E50EC3DF0066E060EE126AC
:101050000650D8B4B7D003C0E9FF04C0F3FF055071
:1010600012EC57F0066E0650E56E32EC50F0066E4C
:10107000F3CF07F0E12A06500710EDE002014A51D4
:101080000E0DF3CF06F0076A600E0626000E07224B
:1010900007500A6E0650096E800E0B6E0B50E56EFF
:1010A0000A50E56E0950E56EAEEC4BF0030EE126FA
:1010B000FDCB06F0FECB07F0FFCB08F006500C0F7F
:1010C0000C6E000E07200D6E000E08200E6E2C0E0A
:1010D000E56E010EF46E000EF66E000EF76E0CC09B
:1010E000E9FF0DC0F3FF0E5043EC57F006500A0F16
:1010F0000C6E000E07200D6E000E08200E6E000E06
:10110000E56E000EF46E0CC0E9FF0DC0F3FF0E504B
:10111000C5EC57F0090E0D6EC80E0C6E800E0E6EEB
:10112000090E106ED40E0F6E800E116E0650040F55
:10113000126E000E0720136E000E0820146E020EB1
:10114000E56E1450E56E1350E56E1250E56E0850D2
:10115000E56E0750E56E0650E56E1150E56E1050D5
:10116000E56E0F50E56E0901CF51E56E0901CE51D4
:10117000E56E0901CD51E56E0901CC51E56E0E50C9
:10118000E56E0D50E56E0C50E56E8AEC1CF0110E0C
:10119000E126090E076EC80E066E800E086E050E5B
:1011A000E56E0550E56E0450E56E0350E56E08509F
:1011B000E56E0750E56E0650E56E83EC09F0070E0C
:1011C000E12668D000C0E9FF01C0F3FF025012EC35
:1011D00057F0036E0350E56E32EC50F0036EF3CF20
:1011E00004F0E12A03500410EDE03CEC48F0020169
:1011F0004A510E0DF3CF03F0046A600E0326000E71
:10120000042204500A6E0350096E800E0B6E0B50C0
:10121000E56E0A50E56E0950E56EAEEC4BF0030E3C
:10122000E126090E046EC80E036E800E056E025094
:10123000E56E0150E56E0050E56E0550E56E045018
:10124000E56E0350E56E11EC1EF0060EE126010E70
:10125000016E000E006E800E026E02010151E56EFD
:1012600002010051E56E0250E56E0150E56E00503E
:10127000E56EABEC2FF0050EE1260CD0000EE56E0E
:10128000850EE56EF40EE56E000EE56EDEEC4AF0BE
:10129000040EE126E4CF1AF0E4CF19F0E4CF18F001
:1012A000E4CF17F0E4CF16F0E4CF15F0E4CF14F05C
:1012B000E4CF13F0E4CF12F0E4CF11F0E4CF10F05C
:1012C000E4CF0FF0E4CF0EF0E4CF0DF0E4CF0CF05C
:1012D000E4CF0BF0E4CF0AF0E4CF09F0E4CF08F05C
:1012E000E4CF07F0E4CF06F0E4CF05F0E4CF04F05C
:1012F000E4CF03F0E4CF02F0E4CF01F0E4CF00F05C
:10130000E4CFD9FF1200D9CFE5FFE1CFD9FF00C06C
:10131000E5FF01C0E5FF02C0E5FF03C0E5FF04C033
:10132000E5FF05C0E5FF06C0E5FF07C0E5FF08C013
:10133000E5FF09C0E5FF0AC0E5FF0BC0E5FF0CC0F3
:10134000E5FF0DC0E5FF0EC0E5FF0FC0E5FF10C0D3
:10135000E5FF11C0E5FF12C0E5FF13C0E5FF14C0B3
:10136000E5FF020EDBCF00F0030EDBCF01F0040E31
:10137000DBCF02F0050EDBCF03F0060EDBCF04F06F
:10138000070EDBCF05F0080EDBCF06F003C0E9FF48
:1013900004C0F3FF055012EC57F0076E0750E56EDE
:1013A00032EC50F0076EF3CF08F0E12A0750081036
:1013B000EDE002014A510E0DF3CF07F0086A600E0E
:1013C0000726000E08220850086E0750076E800E90
:1013D000096E0A6A0B6A0B50800F800F02E1040E3F
:1013E0000A5C18E20A5007240C6E0B5008200D6EA0
:1013F000E86A0BBEE86809200E6EFF0EE56E0CC0B1
:10140000E9FF0DC0F3FF0E50E5EC57F00A2AD8B003
:101410000B2AE1D707500A0F0A6E000E08200B6E48
:10142000000E09200C6E440EE56E000EF46E0AC02C
:10143000E9FF0BC0F3FF0C50C5EC57F0040E072674
:10144000000E0822000E092200501C0F0A6E000E2A
:1014500001200B6E000E02200C6E0D6A0E6A0E50FB
:10146000800F800F02E1040E0D5C2BE20D5007246B
:101470000F6E0E500820106EE86A0EBEE868092054
:10148000116E0D500A24126E0E500B20136EE86A76
:101490000EBEE8680C20146E12C0E9FF13C0F3FF03
:1014A000145012EC57F0126E12C0E5FF0FC0E9FFA6
:1014B00010C0F3FF1150E5EC57F00D2AD8B00E2AFA
:1014C000CED70550E56E0450E56E0350E56E025030
:1014D000E56E0150E56E0050E56E11EC1EF0060E53
:1014E000E1260650E56E54EC4FF0E12A010EE56E60
:1014F00054EC4FF0E12A040EE56E54EC4FF0E12A73
:10150000080E016ECC0E006E800E026E000EE56EAF
:10151000040EE56E0250E56E0150E56E0050E56E7A
:1015200051EC47F0050EE1261C0EE56E54EC4FF031
:10153000E12A040EE56E54EC4FF0E12A006A016ADC
:101540000150800F800F02E1040E005C2DE29E0E20
:101550000024026E0B0E0120036EC80E0024046EE0
:10156000080E0120056ECC0E0024066E080E012028
:10157000076E04C0E9FF05C0EAFFEFCF04F006C024
:10158000E9FF07C0EAFFEFCF06F006500416061E7B
:101590000650041202C0E9FF03C0EAFF04C0EFFFD7
:1015A000002AD8B0012ACCD70B0E016E9E0E006E19
:1015B000800E026E000EE56E040EE56E0250E56EC2
:1015C0000150E56E0050E56E51EC47F0050EE12646
:1015D000030EE56E54EC4FF0E12A040EE56E54EC78
:1015E0004FF0E12A080E016ED00E006E800E026EE2
:1015F000000EE56E040EE56E0250E56E0150E56EDC
:101600000050E56E51EC47F0050EE1262C0E090165
:10161000FE6F010E0901FF6F330EE56E54EC4FF0C3
:10162000E12A040EE56E54EC4FF0E12A000EE56E5F
:1016300054EC4FF0E12A000EE56E54EC4FF0E12A35
:10164000090E016EFE0E006E800E026E000EE56E3B
:10165000020EE56E0250E56E0150E56E0050E56E3B
:1016600002EC4AF0050EE126360EE56E54EC4FF022
:10167000E12A040EE56E54EC4FF0E12A080E016EEB
:10168000C80E006E800E026E000EE56E040EE56E52
:101690000250E56E0150E56E0050E56E51EC47F0EA
:1016A000050EE126FF0EE56E54EC4FF0E12A010E27
:1016B0000201335D03E12C0E0201325D06E2000EF1
:1016C000E56E54EC4FF0E12AF2D704EC21F0E4CFC0
:1016D00014F0E4CF13F0E4CF12F0E4CF11F0E4CF34
:1016E00010F0E4CF0FF0E4CF0EF0E4CF0DF0E4CF34
:1016F0000CF0E4CF0BF0E4CF0AF0E4CF09F0E4CF34
:1017000008F0E4CF07F0E4CF06F0E4CF05F0E4CF33
:1017100004F0E4CF03F0E4CF02F0E4CF01F0E4CF33
:1017200000F0E4CFD9FF1200D9CFE5FFE1CFD9FF18
:1017300000C0E5FF01C0E5FF02C0E5FF03C0E5FF13
:1017400004C0E5FF05C0E5FF06C0E5FF07C0E5FFF3
:1017500008C0E5FF09C0E5FF0AC0E5FF0BC0E5FFD3
:101760000CC0E5FF0DC0E5FF0EC0E5FF0FC0E5FFB3
:1017700010C0E5FF020EDBCF00F0030EDBCF01F05F
:10178000040EDBCF02F0050EDBCF03F0060EDBCF3D
:1017900004F0070EDBCF05F0080EDBCF06F0090ED4
:1017A000DBCF07F00A0EDBCF08F00B0EDBCF09F022
:1017B0000C0EDBCF0AF00D0EDBCF0BF00E0EDBCFE5
:1017C0000CF00F0EDBCF0DF0100EDBCF0EF00CC0C7
:1017D000E9FF0DC0F3FF0E5012EC57F00F6E0F50E3
:1017E000E56E38EC53F00F6EF3CF10F0E12A0F5096
:1017F0001010EDE0000EE56E220EE56E0550E56E70
:101800000450E56E0350E56EAEEC48F0050EE1269F
:101810000350010F0C6E000E04200D6E000E05200B
:101820000E6E0CC0E9FF0DC0F3FF0E5012EC57F026
:101830000C6E0C50010A11E1020E0326000E042268
:10184000000E052203C0E9FF04C0F3FF055012ECAF
:1018500057F0036E0350060A02E0E86A16D1036AE5
:10186000046A000E045C02E1CA0E035C14E2020E7C
:101870000C6E3A0E056E800E0D6E0D50E56E0C501E
:10188000E56E0550E56E03EC51F0030EE126032AE8
:10189000D8B0042AE6D70B0E046EA20E036E800E9B
:1018A000056E000EE56E040EE56E0550E56E045003
:1018B000E56E0350E56EAEEC48F0050EE1260B0137
:1018C000A2510E0145190FE10B01A3510E0146195A
:1018D0000AE10B01A4510E01471905E10B01A551C5
:1018E0000E01481902E0E86AD0D0000EE56E000E45
:1018F000F46E09C0E9FF0AC0F3FF0B50C5EC57F0C6
:10190000010E036E020E056E3A0E046E800E0C6E12
:101910000C50E56E0550E56E0450E56E03EC51F099
:10192000046E030EE1260450D8B4A8D03AC204F0E5
:10193000056A0450FF0A03E1055001E19FD0020E41
:10194000056E3B0E046E800E0C6E0C50E56E05505D
:10195000E56E0450E56E03EC51F0030EE1263AC249
:1019600004F0056A0450350A02E1055001E00CD08C
:101970000250E56E0150E56E0050E56E03EC51F04B
:10198000030EE126036ABED7065007100810D8B42C
:10199000B9D709C0E9FF0AC0F3FF0B5088EC56F035
:1019A000046EF3CF05F0045006240C6E055007209A
:1019B0000D6EE86A05BEE86808200E6E3AC2E5FFC3
:1019C0000CC0E9FF0DC0F3FF0E50E5EC57F00450DA
:1019D000010F0C6E000E05200D6E0E6A0DBE0E6816
:1019E00006500C2607500D2208500E223BC2E5FF80
:1019F0000CC0E9FF0DC0F3FF0E50E5EC57F0020EEE
:101A00000426D8B0052A0C6A05BE0C6806500426C8
:101A10000750052208500C223BC20DF00E6A0E50F2
:101A2000E56E0D50E56E0C50E56E0550E56E045008
:101A3000E56EAEEC48F0050EE12609C0E9FF0AC0EC
:101A4000F3FF0B5088EC56F0046EF3CF05F03BC269
:101A50000CF00D6A020E0C26D8B00D2A0C5004268C
:101A60000D50052204C0E5FF05C0F4FF09C0E9FFE1
:101A70000AC0F3FF0B50C5EC57F044D70350D88091
:101A8000E866D890036A03360350E4CF10F0E4CF41
:101A90000FF0E4CF0EF0E4CF0DF0E4CF0CF0E4CF84
:101AA0000BF0E4CF0AF0E4CF09F0E4CF08F0E4CF84
:101AB00007F0E4CF06F0E4CF05F0E4CF04F0E4CF84
:101AC00003F0E4CF02F0E4CF01F0E4CF00F0E4CF84
:101AD000D9FF1200D9CFE5FFE1CFD9FF00C0E5FF64
:101AE00001C0E5FF02C0E5FF03C0E5FF04C0E5FF5C
:101AF00005C0E5FF06C0E5FF07C0E5FF08C0E5FF3C
:101B000009C0E5FF0AC0E5FF0BC0E5FF0CC0E5FF1B
:101B1000020EDBCF00F0030EDBCF01F00B01BA6B3E
:101B20000B01BB6B0B01BC6B0B01BD6B0B01BA6BEB
:101B30000B01BB6B0B01BC6B0B01BD6B0B01BA6BDB
:101B40000B01BB6B0B01BC6B0B01BD6B0B01BA6BCB
:101B50000B01BB6B0B01BC6B0B01BD6B0B01BA6BBB
:101B60000B01BB6B0B01BC6B0B01BD6B0B01BA6BAB
:101B70000B01BB6B0B01BA6B0B01BB6B0B01BA6B9F
:101B80000B01BB6B0B01BA910B01BA930B01BA9518
:101B90000B01BA970B01BA990B01BA9B0B01BA9DC5
:101BA0000B01BA9F0B01BB910B01BB930B01BB95C2
:101BB0000B01BB970B01BB990B01BB9B0B01BB9DA1
:101BC0000B01BB9F0B01BC6B0B01BD6B0B01BC6B15
:101BD0000B01BD6B0B01BC6B0B01BD6B0B01BC9111
:101BE0000B01BC930B01BC950B01BC970B01BC997D
:101BF0000B01BC9B0B01BC9D0B01BC9F0B01BD915C
:101C00000B01BD930B01BD950B01BD970B01BD9958
:101C10000B01BD9B0B01BD9D0B01BD9F0B01BA913B
:101C20000B01BA930B01BA950B01BA970B01BA9944
:101C30000B01BA9B0B01BA9D0B01BA9F0B01BB9123
:101C40000B01BB930B01BB950B01BB970B01BB9920
:101C50000B01BB9B0B01BB9D0B01BB9F0B01BC91FF
:101C60000B01BC930B01BC950B01BC970B01BC99FC
:101C70000B01BC9B0B01BC9D0B01BC9F0B01BD91DB
:101C80000B01BD930B01BD950B01BD970B01BD99D8
:101C90000B01BD9B0B01BD9D0B01BD9F7BCF02F0D6
:101CA000036A0250056E046A7ACF02F0036A045098
:101CB00002120550031200500110D8B47DD0000E5E
:101CC000015C02E1150E005C04E3140E046E056A6B
:101CD00004D000C004F001C005F004C012F205C039
:101CE00013F20A0E076EEA0E066E800E086E05509D
:101CF000E56E0450E56E0850E56E0750E56E06503F
:101D0000E56E20EC49F0050EE1260450005E05501A
:101D1000015A020112A113D0EA0E02011225046E2B
:101D20000A0E02011321056E04C0E9FF05C0EAFF97
:101D3000000EEF6E0201122B02E30201132B0A0EBA
:101D4000056EEA0E046E800E066E12C207F013C214
:101D500008F007500810D8B4AED704C0E9FF05C09A
:101D6000F3FF065088EC56F0096EF3CF0AF0020E2E
:101D70000426000E0522000E06220B6A0C6A0B01D7
:101D8000BA5109260B01BB510A220B01BC510B228F
:101D90000B01BD510C2209500B01BA6F0A500B0107
:101DA000BB6F0B500B01BC6F0C500B01BD6FFE0ED7
:101DB0000726D8A00806CDD70250006E016A005051
:101DC0007A6E0350026E036A036A02507B6EBACBCE
:101DD00000F0BBCB01F0026A036ABCCB04F0BDCBC0
:101DE00005F0066A076A04500026055001220650D5
:101DF00002220750032200500B01BA6F01500B0161
:101E0000BB6F02500B01BC6F03500B01BD6F0B0188
:101E1000BC510B01BA25006E0B01BD510B01BB215A
:101E2000016E00500B01BA6F01500B01BB6F0B012B
:101E3000BA1D006E0B01BB1D016E01C0F3FF005007
:101E4000E4CF0CF0E4CF0BF0E4CF0AF0E4CF09F0DC
:101E5000E4CF08F0E4CF07F0E4CF06F0E4CF05F0DC
:101E6000E4CF04F0E4CF03F0E4CF02F0E4CF01F0DC
:101E7000E4CF00F0E4CFD9FF1200D9CFE5FFE1CFE6
:101E8000D9FF00C0E5FF01C0E5FF02C0E5FF03C0C8
:101E9000E5FF04C0E5FF05C0E5FF06C0E5FF07C09C
:101EA000E5FF08C0E5FF09C0E5FF0AC0E5FF0BC07C
:101EB000E5FF0CC0E5FF0DC0E5FF0EC0E5FF0FC05C
:101EC000E5FF10C0E5FF020EDBCF00F0030EDBCF15
:101ED00001F0040EDBCF02F00801F4AD47D0B4EC02
:101EE00055F0036E03500E01551901E133D003C0C4
:101EF00055FE03502FE1DCC803F0DDC804F0DEC856
:101F000005F0DFC806F003500801C86F045008014F
:101F1000C96F05500801CA6F06500801CB6FE0C8B1
:101F200003F0E1C804F0E2C805F0E3C806F003508E
:101F30000801CC6F04500801CD6F05500801CE6F29
:101F400006500801CF6F0801F48F000EE56E46ECD5
:101F500051F0E12A83EC03F0000EE56E33EC57F00C
:101F6000036EE12A035002E00801F49FDBEC57F016
:101F7000C8EC56F00B0E046E680E036E800E056EF4
:101F8000020E076E470E066E800E086E0850E56E54
:101F90000750E56E0650E56E0550E56E0450E56E9F
:101FA0000350E56EA2EC2EF0036E060EE126035000
:101FB000D8B408D147C203F0046A035002E10450C8
:101FC00009E00350060A02E1045001E0D1D757ECC2
:101FD00025F0CED70B0E046ED20E036E800E056E6A
:101FE0000B0E076E640E066E800E086E020E0A6EF1
:101FF000480E096E800E0B6E020E0D6E2A0E0C6ED0
:10200000800E0E6E0E50E56E0D50E56E0C50E56EB6
:102010000B50E56E0A50E56E0950E56E0850E56E0E
:102020000750E56E0650E56E0550E56E0450E56E0E
:102030000350E56E2BEC2AF0036E0C0EE1260350E4
:10204000D8B496D748C203F0046A0350010A02E1EB
:10205000045001E06DD0D2CB05F0D3CB06F0D4CB49
:1020600007F0D5CB08F0C8C809F0C9C80AF0CAC83B
:102070000BF0CBC80CF0055009180AE106500A18FD
:1020800007E107500B1804E108500C1801E139D0A2
:102090000550FF0A09E10650FF0A06E10750FF0A52
:1020A00003E10850FF0A2DE00801CC510916080190
:1020B000CD510A160801CE510B160801CF510C164E
:1020C0000801CC1D0D6E0801CD1D0E6E0801CE1D40
:1020D0000F6E0801CF1D106E0D5009120E500A121E
:1020E0000F500B1210500C120550091809E1065040
:1020F0000A1806E107500B1803E108500C1801E01C
:1021000037D70B0E066E640E056E800E076E020149
:102110002B51E56E02012A51E56E0750E56E06501F
:10212000E56E0550E56E0FEC39F0050EE12620D77F
:102130000350110A02E1045001E01AD70B0E046E9D
:10214000640E036E800E056E0B0E076ED20E066EC9
:10215000800E086E02012B51E56E02012A51E56ED8
:102160000850E56E0750E56E0650E56E0550E56EC9
:102170000450E56E0350E56E8FEC1FF0036E080E01
:10218000E1260350D8B4F4D60050011002101AE032
:102190000B0E046E640E036E800E056E000EE56E6F
:1021A000040EE56E0550E56E0450E56E0350E56ED5
:1021B0000250E56E0150E56E0050E56ED1EC45F041
:1021C000080EE126E4CF10F0E4CF0FF0E4CF0EF0DC
:1021D000E4CF0DF0E4CF0CF0E4CF0BF0E4CF0AF045
:1021E000E4CF09F0E4CF08F0E4CF07F0E4CF06F045
:1021F000E4CF05F0E4CF04F0E4CF03F0E4CF02F045
:10220000E4CF01F0E4CF00F0E4CFD9FF1200D9CF42
:10221000E5FFE1CFD9FF00C0E5FF01C0E5FF02C047
:10222000E5FF03C0E5FF04C0E5FF05C0E5FF06C00C
:10223000E5FF07C0E5FF08C0E5FF09C0E5FF0AC0EC
:10224000E5FF0BC0E5FF0CC0E5FF0DC0E5FF0EC0CC
:10225000E5FF0FC0E5FF10C0E5FF11C0E5FF12C0AC
:10226000E5FF13C0E5FF14C0E5FF15C0E5FF16C08C
:10227000E5FF17C0E5FF18C0E5FF19C0E5FF1AC06C
:10228000E5FF1BC0E5FF020EDBCF00F0030EDBCF46
:1022900001F0040EDBCF02F0050EDBCF03F0060EDB
:1022A000DBCF04F0070EDBCF05F0080EDBCF06F026
:1022B000090EDBCF07F00A0EDBCF08F0FF0E096E28
:1022C000000E0B6E600E0A6E800E0C6E0D6A0050D2
:1022D000020F0E6E000E01200F6E000E0220106E17
:1022E0000EC0E9FF0FC0F3FF105088EC56F00E6EE1
:1022F000F3CF0FF00AC010F00BC011F00CC012F0B9
:10230000136A13C014F0156A000E155C02E10A0E80
:10231000145CD8B0B4D010500C0F146E000E112005
:10232000156E000E1220166E14C0E9FF15C0F3FFE3
:10233000165088EC56F0146EF3CF15F014500E18AA
:1023400003E115500F1801E090D010500A0F146EE1
:10235000000E1120156E000E1220166E14C0E9FF3B
:1023600015C0F3FF165088EC56F0146EF3CF15F03D
:1023700000C0E9FF01C0F3FF025088EC56F0166E72
:10238000F3CF17F01450161803E11550171801E099
:102390006AD010C0E9FF11C0F3FF125018EC56F0DC
:1023A000146EF3CF15F0F4CF16F0E9CF17F003C099
:1023B000E9FF04C0F3FF055018EC56F0186EF3CF98
:1023C00019F0F4CF1AF0E9CF1BF0145018180AE1F5
:1023D0001550191807E116501A1804E117501B1868
:1023E00001E13FD006C0E9FF07C0F3FF085018EC39
:1023F00056F0146EF3CF15F0F4CF16F0E9CF17F0C6
:102400001450FF0A09E11550FF0A06E11650FF0AB1
:1024100003E11750FF0A25E00801CC1D186E0801E2
:10242000CD1D196E0801CE1D1A6E0801CF1D1B6E41
:102430000801C85118120801C95119120801CA51DE
:102440001A120801CB511B121450181809E115502B
:10245000191806E116501A1803E117501B1801E06D
:1024600002D00D5054D013C009F00E0E1026000EED
:102470001122000E1222132A13C00DF042D709C0F8
:1024800006F0076A0650FF0A03E1075001E13ED05B
:1024900009500E0DF3CF06F0076A600E0626000EF7
:1024A000072207500B6E06500A6E800E0C6E000E4F
:1024B000E56E0A0EE56E0550E56E0450E56E0350BC
:1024C000E56E0C50E56E0B50E56E0A50E56ED1ECF2
:1024D00045F0080EE1260A0E0A26000E0B22000E19
:1024E0000C2200C0E9FF01C0F3FF025088EC56F057
:1024F000006EF3CF01F000C0E5FF01C0F4FF0AC099
:10250000E9FF0BC0F3FF0C50C5EC57F00950E4CFC6
:102510001BF0E4CF1AF0E4CF19F0E4CF18F0E4CFC9
:1025200017F0E4CF16F0E4CF15F0E4CF14F0E4CFC9
:1025300013F0E4CF12F0E4CF11F0E4CF10F0E4CFC9
:102540000FF0E4CF0EF0E4CF0DF0E4CF0CF0E4CFC9
:102550000BF0E4CF0AF0E4CF09F0E4CF08F0E4CFC9
:1025600007F0E4CF06F0E4CF05F0E4CF04F0E4CFC9
:1025700003F0E4CF02F0E4CF01F0E4CF00F0E4CFC9
:10258000D9FF1200D9CFE5FFE1CFD9FF00C0E5FFA9
:1025900001C0E5FF02C0E5FF03C0E5FF04C0E5FFA1
:1025A00005C0E5FF06C0E5FF07C0E5FF08C0E5FF81
:1025B000020EDBCF00F0030EDBCF01F0010EE56E63
:1025C00054EC4FF0E12A010EE56E54EC4FF0E12A95
:1025D000060EE56E54EC4FF0E12A000EE56E54EC69
:1025E0004FF0E12A120EE56E54EC4FF0E12A230E73
:1025F000E56E54EC4FF0E12A340EE56E54EC4FF0EA
:10260000E12A560EE56E54EC4FF0E12A000EE56E1D
:1026100054EC4FF0E12A000EE56E54EC4FF0E12A45
:102620000B011EA902D0026A02D0800E026E025077
:10263000E56E54EC4FF0E12A000EE56E54EC4FF0DD
:10264000E12A00C002F0036A046A0250030A03E1AF
:10265000035001E1042A045017E0015015E00B0E6D
:10266000066E2B0E056E800E076E000EE56E040ED4
:10267000E56E0750E56E0650E56E0550E56E51ECCF
:1026800047F0050EE12614D0000EE56E54EC4FF035
:10269000E12A000EE56E54EC4FF0E12A000EE56EE3
:1026A00054EC4FF0E12A000EE56E54EC4FF0E12AB5
:1026B0000C0E056E000EE56E54EC4FF0E12A050697
:1026C0000550F8E1080E076EF50E066E800E086ED6
:1026D000000EE56E060EE56E0850E56E0750E56EDD
:1026E0000650E56E51EC47F0050EE126CA0E056E68
:1026F000000EE56E54EC4FF0E12A052EF9D7630E7B
:10270000E56E54EC4FF0E12A820EE56E54EC4FF08A
:10271000E12A530EE56E54EC4FF0E12A630EE56EAC
:1027200054EC4FF0E12A350EE56E54EC4FF0E12AFF
:10273000010EE56E54EC4FF0E12A0050E56E54ECCA
:102740004FF0E12A006A0250010A03E1035001E15F
:10275000002A005002E00B011E95045024E00150B5
:1027600022E1360EE56E54EC4FF0E12A040EE56EE0
:1027700054EC4FF0E12A0B012A51E56E54EC4FF076
:10278000E12A0B012951E56E54EC4FF0E12A0B01CF
:102790002851E56E54EC4FF0E12A0B012751E56E0C
:1027A00054EC4FF0E12A370EE56E54EC4FF0E12A7D
:1027B000040EE56E54EC4FF0E12A010EE56E54EC88
:1027C0004FF0E12A030EE56E54EC4FF0E12A060EBD
:1027D000E56E54EC4FF0E12A0C0EE56E54EC4FF030
:1027E000E12A045002E001500BE0005027E00B0109
:1027F0002B510B012C110B012D110B012E111EE081
:10280000320EE56E54EC4FF0E12A040EE56E54EC06
:102810004FF0E12A0B0E026E2B0E006E800E036E3F
:10282000000EE56E040EE56E0350E56E0250E56E97
:102830000050E56E51EC47F0050EE126FF0EE56E07
:1028400054EC4FF0E12A010E0201335D03E12C0E3E
:102850000201325D06E2000EE56E54EC4FF0E12A13
:10286000F2D70801C8510B01B66F0801C9510B011D
:10287000B76F0801CA510B01B86F0801CB510B01AA
:10288000B96F015008E10801C86B0801C96B080164
:10289000CA6B0801CB6B04EC21F00B01B6510801A7
:1028A000C86F0B01B7510801C96F0B01B85108017E
:1028B000CA6F0B01B9510801CB6FE4CF08F0E4CF28
:1028C00007F0E4CF06F0E4CF05F0E4CF04F0E4CF66
:1028D00003F0E4CF02F0E4CF01F0E4CF00F0E4CF66
:1028E000D9FF1200D9CFE5FFE1CFD9FF00C0E5FF46
:1028F00001C0E5FF02C0E5FF03C0E5FF04C0E5FF3E
:1029000005C0E5FF06C0E5FF07C0E5FF020EDBCF0F
:1029100014F2030EDBCF15F2040EDBCF16F2050E18
:10292000DBCF17F2060EDBCF00F0070EDBCF01F096
:10293000026A036A020115AF13D0010E026EE3CEE4
:1029400004F0056A0450076E066AE2CE04F0056AD8
:10295000045006100201146F055007100201156F94
:10296000020117AF13D0010E036E7BCF04F0056A8E
:102970000450076E066A7ACF04F0056A0450061008
:102980000201166F055007100201176F000E015C5F
:1029900002E1020E005CD8B07CD07BCF04F0056A67
:1029A0000450076E066A7ACF04F0056A04500612D6
:1029B0000550071206500201186F07500201196FE7
:1029C000E3CE04F0056A0450076E066AE2CE04F016
:1029D000056A0450061205500712065002011A6FCC
:1029E000075002011B6F02011651046E056A045064
:1029F0007A6E02011751046E056A056A04507B6EF7
:102A000002011451046E056A04500E01E26F0201C6
:102A10001551046E056A056A04500E01E36F00C08B
:102A200004F001C005F004C006F005C007F0FF0E79
:102A30000426D8A005060650071009E0EFEC57F071
:102A4000066E0650E56ED1EC57F0E12AECD7035044
:102A50000DE102011851046E056A04507A6E0201FC
:102A60001951046E056A056A04507B6E0250D8A4A1
:102A7000D5D002011A51046E056A04500E01E26FAE
:102A800002011B51046E056A056A04500E01E36FD2
:102A9000C5D0025023E0005002011425026E0150FF
:102AA00002011521046E025002011A6F0450020146
:102AB0001B6F1AC2E8FF1BC2E8FF0250056E066AD0
:102AC00005500E01E26F1AC2E8FF1BC2E8FF045076
:102AD000026E046A046A02500E01E36F020116518D
:102AE000FF0F026EFF0E02011721046E0250002636
:102AF00004500122D2BAFED702011651026E046AB6
:102B000002500E01F06F02011751026E046A046A4E
:102B100002500E01F16F02011451026E046A02505C
:102B20000E01F46F02011551026E046A046A02502C
:102B30000E01F56F16C202F017C204F0056A066AAC
:102B4000000E065C08E1000E055C05E11A0E045C4F
:102B500002E10A0E025C026A023602501EE100C067
:102B600004F001C005F0066A076A000E075C08E180
:102B7000000E065C05E11A0E055C02E10A0E045C1B
:102B80000CE3F60E0426E50E0522FF0E0622FF0ECC
:102B900007220450006E0550016E0050046E056A55
:102BA00004500E01F26F0150046E056A056A04506C
:102BB0000E01F36FD298D28AD2BAFED703502EE01C
:102BC000002AD8B0012A02501EE100C002F001C064
:102BD00003F0046A056A000E055C08E1000E045C5F
:102BE00005E11A0E035C02E10A0E025C0CE3F60E2C
:102BF0000226E50E0322FF0E0422FF0E05220250DC
:102C0000006E0350016E0050026E036A02507A6E2D
:102C10000150006E016A016A00507B6EE4CF07F03C
:102C2000E4CF06F0E4CF05F0E4CF04F0E4CF03F006
:102C3000E4CF02F0E4CF01F0E4CF00F0E4CFD9FF1D
:102C40001200D9CFE5FFE1CFD9FF00C0E5FF01C0F9
:102C5000E5FF02C0E5FF03C0E5FF04C0E5FF05C0D6
:102C6000E5FF06C0E5FF07C0E5FF08C0E5FF09C0B6
:102C7000E5FF0AC0E5FF0BC0E5FF0CC0E5FF0DC096
:102C8000E5FF0EC0E5FF0FC0E5FF10C0E5FF11C076
:102C9000E5FF020EDBCF00F0030EDBCF01F0040EE8
:102CA000DBCF02F0050EDBCF03F0060EDBCF04F026
:102CB000070EDBCF05F0020E076E380E066E800E93
:102CC000086E010E0A6EC80E096E800E0B6E0A0E9B
:102CD0000D6E000E0C6E800E0E6E010E106EFE0E4E
:102CE0000F6E800E116E0550E56E0450E56E0350B8
:102CF000E56E1150E56E1050E56E0F50E56E0E500A
:102D0000E56E0D50E56E0C50E56E0B50E56E0A5009
:102D1000E56E0950E56E0850E56E0750E56E065009
:102D2000E56E94EC0BF00F0EE126C8EC56F038C2BD
:102D300003F0046A0350020A02E1045006E0035063
:102D4000050A02E1045027E0F6D0000EE56E850E7C
:102D5000E56EA20EE56E000EE56EDEEC4AF0040EA6
:102D6000E126010E046EC80E036E800E056E020190
:102D70003851E56E0250E56E0150E56E0050E56E8B
:102D80000550E56E0450E56E0350E56E83EC09F0E6
:102D9000070EE126DCD0000EE56E850EE56EAE0E68
:102DA000E56E000EE56EDEEC4AF0040EE126080E3C
:102DB000046EFB0E036E800E056E0A0E076E000E8B
:102DC000066E800E086E0101FF51E56E0101FE5195
:102DD000E56E0850E56E0750E56E0650E56E05504D
:102DE000E56E0450E56E0350E56EAFEC33F0080E6F
:102DF000E1260B0E046EFA0E036E800E056E010EB8
:102E0000076EE40E066E800E086E0850E56E0750E1
:102E1000E56E0650E56E0550E56E0450E56E035014
:102E2000E56E50EC3DF0036E060EE1260350D8B47B
:102E30003CD0FACB03F0FBCB04F0FCCB05F0010E49
:102E4000076ED80E066E800E086E000EE56E040E3C
:102E5000E56E0850E56E0750E56E0650E56E0550CC
:102E6000E56E0450E56E0350E56ED1EC45F0080EBA
:102E7000E126FACB03F0FBCB04F0FCCB05F0100EFF
:102E80000326000E0422000E0522FBC8E5FFFCC845
:102E9000F4FFFDC8F6FFFEC8F7FF03C0E9FF04C05A
:102EA000F3FF055043EC57F02CD0010E046ED80E02
:102EB000036E800E056E010E076EE40E066E800E28
:102EC000086E000EE56E000EE56E0801FE51E56E1F
:102ED0000801FD51E56E0801FC51E56E0801FB514A
:102EE000E56E0850E56E0750E56E0650E56E05503C
:102EF000E56E0450E56E0350E56E56EC2BF00C0EBB
:102F0000E126010E046EC80E036E800E056E0201EE
:102F10003851E56E0250E56E0150E56E0050E56EE9
:102F20000550E56E0450E56E0350E56E83EC09F044
:102F3000070EE1260CD0000EE56E850EE56EB80E8C
:102F4000E56E000EE56EDEEC4AF0040EE126E4CFFD
:102F500011F0E4CF10F0E4CF0FF0E4CF0EF0E4CFA7
:102F60000DF0E4CF0CF0E4CF0BF0E4CF0AF0E4CFA7
:102F700009F0E4CF08F0E4CF07F0E4CF06F0E4CFA7
:102F800005F0E4CF04F0E4CF03F0E4CF02F0E4CFA7
:102F900001F0E4CF00F0E4CFD9FF1200D9CFE5FF74
:102FA000E1CFD9FF00C0E5FF01C0E5FF02C0E5FFAA
:102FB00003C0E5FF04C0E5FF05C0E5FF06C0E5FF6F
:102FC00007C0E5FF08C0E5FF09C0E5FF0AC0E5FF4F
:102FD0000BC0E5FF0CC0E5FF0DC0E5FF0EC0E5FF2F
:102FE0000FC0E5FF10C0E5FF020EDBCF00F0030EBF
:102FF000DBCF01F0040EDBCF02F0036A046A056A3E
:10300000066A076A086A0450800F800F02E10A0E00
:10301000035CD8B036D1000E0724096E090E0820D3
:103020000A6E0A500A6E0950096E800E0B6E0B5024
:10303000E56E0A50E56E0950E56ED3EC4CF0096E72
:10304000030EE1260950D8A410D1000E0724096E02
:10305000090E08200A6E100E0926D8B00A2A09C0E7
:10306000E9FF0AC0EAFFEECF0BF0EECF0CF0EECF97
:103070000DF0EFCF0EF0000E0E5C08E1000E0D5CBF
:1030800005E1000E0C5C02E13C0E0B5C0DE209C098
:10309000E9FF0AC0EAFF000EEE6E000EEE6E000EB3
:1030A000EE6E000EEF6E20D009C0E9FF0AC0EAFF05
:1030B000EECF0BF0EECF0CF0EECF0DF0EFCF0EF029
:1030C000C40E0B26FF0E0C22FF0E0D22FF0E0E2249
:1030D00009C0E9FF0AC0EAFF0BC0EEFF0CC0EEFF1B
:1030E0000DC0EEFF0EC0EFFF000E0524096E090EA5
:1030F00006200A6E09500C0F0B6E000E0A200C6E93
:103100000BC0E9FF0CC0EAFFEECF0DF0EECF0EF0E2
:10311000EECF0FF0EFCF10F0000E105C08E1000EC4
:103120000F5C05E1000E0E5C02E13D0E0D5CD8B0B7
:1031300042D009500A0F0D6E000E0A200E6E0DC00F
:10314000E9FF0EC0EAFFEECF0FF0EFCF10F00F2A2D
:10315000D8B0102A0DC0E9FF0EC0EAFF0FC0EEFF85
:1031600010C0EFFF0BC0E9FF0CC0EAFF2C0EEE6EA3
:10317000010EEE6E000EEE6E000EEF6E000E105C95
:1031800002E1050E0F5C37E30A500A6E0950096E22
:10319000800E0D6E0D50E56E0A50E56E0950E56E1D
:1031A0000250E56E0150E56E0050E56EB1EC31F075
:1031B000060EE1265AD00BC0E9FF0CC0EAFFEECFA5
:1031C00009F0EECF0AF0EECF0DF0EFCF0EF0C40E07
:1031D0000926FF0E0A22FF0E0D22FF0E0E220BC043
:1031E000E9FF0CC0EAFF09C0EEFF0AC0EEFF0DC008
:1031F000EEFF0EC0EFFF000E0524096E090E06203B
:103200000A6E0950100F0B6E000E0A200C6E0BC0D8
:10321000E9FF0CC0EAFFEECF0BF0EECF0CF0EECFE3
:103220000DF0EFCF0EF0000E0E5C08E1000E0D5C0D
:1032300005E1010E0C5C02E12D0E0B5C16E20A505A
:103240000A6E0950096E800E0B6E0B50E56E0A5027
:10325000E56E0950E56E0250E56E0150E56E0050D6
:10326000E56E7EEC36F0060EE126140E0526D8B08B
:10327000062A140E0726D8B0082A032AD8B0042A32
:10328000C2D6E4CF10F0E4CF0FF0E4CF0EF0E4CFDD
:103290000DF0E4CF0CF0E4CF0BF0E4CF0AF0E4CF74
:1032A00009F0E4CF08F0E4CF07F0E4CF06F0E4CF74
:1032B00005F0E4CF04F0E4CF03F0E4CF02F0E4CF74
:1032C00001F0E4CF00F0E4CFD9FF1200D9CFE5FF41
:1032D000E1CFD9FF00C0E5FF01C0E5FF02C0E5FF77
:1032E00003C0E5FF04C0E5FF05C0E5FF06C0E5FF3C
:1032F00007C0E5FF08C0E5FF020EDBCF00F0030EBC
:10330000DBCF01F0040EDBCF02F0050EDBCF26F29F
:10331000060EDBCF27F20B01C66B0B01C76B0B014F
:10332000C86B0B01C96B0B01C66B0B01C76B0B01A3
:10333000C86B0B01C96B0B01C66B0B01C76B0B0193
:10334000C86B0B01C96B0B01C66B0B01C76B0B0183
:10335000C86B0B01C96B0B01C66B0B01C76B0B0173
:10336000C86B0B01C96B0B01C66B0B01C76B0B0163
:10337000C66B0B01C76B0B01C66B0B01C76B0B0157
:10338000C6910B01C6930B01C6950B01C6970B01A5
:10339000C6990B01C69B0B01C69D0B01C69F0B0175
:1033A000C7910B01C7930B01C7950B01C7970B0181
:1033B000C7990B01C79B0B01C79D0B01C79F0B0151
:1033C000C86B0B01C96B0B01C86B0B01C96B0B01FF
:1033D000C86B0B01C96B0B01C8910B01C8930B01A2
:1033E000C8950B01C8970B01C8990B01C89B0B012D
:1033F000C89D0B01C89F0B01C9910B01C9930B011B
:10340000C9950B01C9970B01C9990B01C99B0B0108
:10341000C99D0B01C99F0B01C6910B01C6930B01FE
:10342000C6950B01C6970B01C6990B01C69B0B01F4
:10343000C69D0B01C69F0B01C7910B01C7930B01E2
:10344000C7950B01C7970B01C7990B01C79B0B01D0
:10345000C79D0B01C79F0B01C8910B01C8930B01BE
:10346000C8950B01C8970B01C8990B01C89B0B01AC
:10347000C89D0B01C89F0B01C9910B01C9930B019A
:10348000C9950B01C9970B01C9990B01C99B0B0188
:10349000C99D0B01C99FD89002012731046E02011A
:1034A0002631036E03C005F004C006F0FF0E0326AC
:1034B000D8A00406055006102BE000C0E9FF01C0AB
:1034C000F3FF025088EC56F0056EF3CF06F0020EC3
:1034D0000026000E0122000E0222076A086A0B0174
:1034E000C65105260B01C75106220B01C851072200
:1034F0000B01C951082205500B01C66F06500B0184
:10350000C76F07500B01C86F08500B01C96FCAD7AE
:10351000020126A123D000C0E9FF01C0F3FF025041
:1035200012EC57F0006E016A026A036A0B01C65181
:1035300000260B01C75101220B01C85102220B01C9
:10354000C951032200500B01C66F01500B01C76F18
:1035500002500B01C86F03500B01C96FC6CB00F0BE
:10356000C7CB01F0026A036AC8CB04F0C9CB05F0EF
:10357000066A076A045000260550012206500222FE
:103580000750032200500B01C66F01500B01C76F9B
:1035900002500B01C86F03500B01C96F0B01C851DA
:1035A0000B01C625006E0B01C9510B01C721016E2D
:1035B00000500B01C66F01500B01C76F0B01C61DF8
:1035C000006E0B01C71D016E01C0F3FF0050E4CF78
:1035D00008F0E4CF07F0E4CF06F0E4CF05F0E4CF45
:1035E00004F0E4CF03F0E4CF02F0E4CF01F0E4CF45
:1035F00000F0E4CFD9FF1200D9CFE5FFE1CFD9FF2A
:1036000000C0E5FF01C0E5FF02C0E5FF03C0E5FF24
:1036100004C0E5FF05C0E5FF06C0E5FF07C0E5FF04
:1036200008C0E5FF09C0E5FF0AC0E5FF0BC0E5FFE4
:103630000CC0E5FF0DC0E5FF020EDBCF00F0030E6E
:10364000DBCF01F0040EDBCF02F0050EDBCF03F081
:10365000060EDBCF04F0070EDBCF05F0066A076A23
:103660000B01BE6B0B01BF6B0B01C06B0B01C16B80
:1036700000C0E9FF01C0F3FF025012EC57F0086EE2
:10368000002AD8B0012AD8B0022A08C009F0085090
:10369000D8B4D0D007C008F00A6A000E0A5C02E174
:1036A000040E085CD8B0C6D0D00E092606500CE136
:1036B00009C008F00A6A000E0A5C02E10A0E085C02
:1036C000D8A09DD0E86A07D106C008F00A6A085061
:1036D000030A02E10A5001E044D00950FE0A02E068
:1036E000E86AF9D0000E0B01C15D0BE1020E0B017F
:1036F000C05D07E1050E0B01BF5D03E1060E0B0186
:10370000BE5D02E3E86AE7D007C008F0072A0A6A4C
:103710000B6A0350082604500A2205500B220B01A5
:10372000C051640DF3CF0CF00B01BF510A0DF3CF64
:103730000DF00D500C260B01BE510C260CC0E5FF00
:1037400008C0E9FF0AC0F3FF0B50E5EC57F0066A2A
:103750000B01BE6B0B01BF6B0B01C06B0B01C16B8F
:1037600087D70950FE0A01E03FD0000E0B01C15D72
:103770000BE1020E0B01C05D07E1050E0B01BF5D01
:1037800003E1060E0B01BE5D02E3E86AA4D007C0A8
:1037900008F0072A0A6A0B6A0350082604500A2216
:1037A00005500B220B01C051640DF3CF0CF00B013F
:1037B000BF510A0DF3CF0DF00D500C260B01BE5179
:1037C0000C260CC0E5FF08C0E9FF0AC0F3FF0B5050
:1037D000E5EC57F0066A0B01BE6B0B01BF6B0B01EA
:1037E000C06B0B01C16B44D709C008F00A6A000E18
:1037F0000A5C02E10A0E085C02E3E86A6CD0062A61
:103800000B01C0510C6E0B01BF510B6E0B01BE5171
:103810000A6E086A08500B01BE6F0A500B01BF6F99
:103820000B500B01C06F0C500B01C16F09500B0105
:10383000BE6F1ED709501EE009C000F0016A00509B
:103840002F0A02E1015016E000500D0A02E101507A
:1038500011E000500A0A02E101500CE00050200A79
:1038600002E1015007E00050090A02E1015002E0C4
:10387000E86A31D0000E0B01C15D0BE1020E0B01B5
:10388000C05D07E1050E0B01BF5D03E1060E0B01F4
:10389000BE5D02E3E86A1FD0030E0326000E042279
:1038A000000E05220B01C051640DF3CF00F00B0197
:1038B000BF510A0DF3CF01F0015000260B01BE519C
:1038C000002600C0E5FF03C0E9FF04C0F3FF055078
:1038D000E5EC57F0010EE4CF0DF0E4CF0CF0E4CFAF
:1038E0000BF0E4CF0AF0E4CF09F0E4CF08F0E4CF26
:1038F00007F0E4CF06F0E4CF05F0E4CF04F0E4CF26
:1039000003F0E4CF02F0E4CF01F0E4CF00F0E4CF25
:10391000D9FF1200D9CFE5FFE1CFD9FF00C0E5FF05
:1039200001C0E5FF02C0E5FF03C0E5FF04C0E5FFFD
:1039300005C0E5FF06C0E5FF07C0E5FF08C0E5FFDD
:1039400009C0E5FF0AC0E5FF0BC0E5FF0CC0E5FFBD
:103950000DC0E5FF0EC0E5FF0FC0E5FF10C0E5FF9D
:1039600011C0E5FF12C0E5FF020EDBCF00F0030E31
:10397000DBCF01F0040EDBCF02F0050EDBCF03F04E
:10398000060EDBCF04F0070EDBCF05F0080EDBCF11
:1039900006F0090EDBCF07F00A0EDBCF08F00B0EA6
:1039A000DBCF09F00C0EDBCF0AF00D0EDBCF0BF0F6
:1039B0000E0EDBCF0CF00F0EDBCF0DF0100EDBCFB9
:1039C0000EF0110EDBCF0FF0120EDBCF10F010C097
:1039D000E5FF00C0E9FF01C0F3FF0250E5EC57F03E
:1039E0000050010F106E000E0120116E000E02201B
:1039F000126E010EE56E10C0E9FF11C0F3FF125008
:103A0000E5EC57F00050020F106E000E0120116E11
:103A1000000E0220126E060EE56E10C0E9FF11C006
:103A2000F3FF1250E5EC57F00050030F106E000E3C
:103A30000120116E000E0220126E010EE56E10C004
:103A4000E9FF11C0F3FF1250E5EC57F00050040FEE
:103A5000106E000E0120116E000E0220126E03C0C7
:103A6000E5FF04C0F4FF05C0F6FF06C0F7FF10C075
:103A7000E9FF11C0F3FF125043EC57F00050080F5C
:103A8000036E000E0120046E000E0220056E000E73
:103A9000E56E000EF46E03C0E9FF04C0F3FF0550AD
:103AA000C5EC57F000500A0F036E000E0120046EA3
:103AB000000E0220056E000EE56E000EF46E03C0CF
:103AC000E9FF04C0F3FF0550C5EC57F000500C0FA0
:103AD000036E000E0120046E000E0220056E000E23
:103AE000E56E040EE56E0950E56E0850E56E075070
:103AF000E56E0550E56E0450E56E0350E56ED1ECC1
:103B000045F0080EE1260050100F036E000E012054
:103B1000046E000E0220056E000EE56E040EE56ECA
:103B20000C50E56E0B50E56E0A50E56E0550E56EE3
:103B30000450E56E0350E56ED1EC45F0080EE12629
:103B40000050140F036E000E0120046E000E0220C0
:103B5000056E000EE56E040EE56E000EE56E045077
:103B6000E56E0350E56E49EC4BF0050EE126005082
:103B7000180F036E000E0120046E000E0220056E69
:103B8000000EE56E040EE56E2A0EE56E0450E56E3D
:103B90000350E56E49EC4BF0050EE1261C0E0026A5
:103BA000000E0122000E0222000EE56E060EE56EEA
:103BB0000F50E56E0E50E56E0D50E56E0250E56E4D
:103BC0000150E56E0050E56ED1EC45F0080EE1269F
:103BD000E4CF12F0E4CF11F0E4CF10F0E4CF0FF017
:103BE000E4CF0EF0E4CF0DF0E4CF0CF0E4CF0BF017
:103BF000E4CF0AF0E4CF09F0E4CF08F0E4CF07F017
:103C0000E4CF06F0E4CF05F0E4CF04F0E4CF03F016
:103C1000E4CF02F0E4CF01F0E4CF00F0E4CFD9FF2D
:103C20001200D9CFE5FFE1CFD9FF00C0E5FF01C009
:103C3000E5FF02C0E5FF03C0E5FF04C0E5FF05C0E6
:103C4000E5FF06C0E5FF07C0E5FF020EDBCF00F091
:103C5000030EDBCF01F0040EDBCF02F0050EDBCF4D
:103C600003F0060EDBCF04F0070EDBCF05F003C038
:103C7000E9FF04C0F3FF055012EC57F0066E065042
:103C8000E56E32EC50F0066EF3CF07F0E12A0650F5
:103C90000710EDE0000EE56E010EE56E0250E56ED8
:103CA0000150E56E0050E56E51EC47F0050EE1263F
:103CB0000050010F036E000E0120046E000E022062
:103CC000056E000EE56E010EE56E0550E56E0450C2
:103CD000E56E0350E56E51EC47F0050EE12600500D
:103CE000020F036E000E0120046E000E0220056E0E
:103CF000000EE56E010EE56E0550E56E0450E56EB2
:103D00000350E56E51EC47F0050EE1260050030F1D
:103D1000036E000E0120046E000E0220056E000EE0
:103D2000E56E010EE56E0550E56E0450E56E03503C
:103D3000E56E51EC47F0050EE1260050040F036ECE
:103D4000000E0120046E000E0220056E000EE56ECE
:103D5000040EE56E0550E56E0450E56E0350E56E09
:103D600051EC47F0050EE1260050080F036E000EDF
:103D70000120046E000E0220056E000EE56E020E9C
:103D8000E56E0550E56E0450E56E0350E56E51ECAE
:103D900047F0050EE12600500A0F036E000E0120C9
:103DA000046E000E0220056E000EE56E020EE56E3A
:103DB0000550E56E0450E56E0350E56E51EC47F09A
:103DC000050EE12600500C0F036E000E0120046E5C
:103DD000000E0220056E000EE56E040EE56E055025
:103DE000E56E0450E56E0350E56E51EC47F0050EAC
:103DF000E1260050100F036E000E0120046E000E2D
:103E00000220056E000EE56E040EE56E0550E56EAF
:103E10000450E56E0350E56E51EC47F0050EE126C7
:103E20000050140F036E000E0120046E000E0220DD
:103E3000056E000EE56E040EE56E0550E56E04504D
:103E4000E56E0350E56E51EC47F0050EE126080ED5
:103E5000046EC80E036E800E056E000EE56E040E35
:103E6000E56E0550E56E0450E56E0350E56E51ECCD
:103E700047F0050EE1261C0E0026000E0122000E62
:103E80000222000EE56E060EE56E0250E56E015050
:103E9000E56E0050E56E51EC47F0050EE126CA0EC6
:103EA000006E016A000EE56E54EC4FF0E12AFF0E41
:103EB0000026D8A0010600500110F4E1630EE56E63
:103EC00054EC4FF0E12A820EE56E54EC4FF0E12AFB
:103ED000530EE56E54EC4FF0E12A630EE56E54ECA0
:103EE0004FF0E12A350EE56E54EC4FF0E12A010E59
:103EF000E56E54EC4FF0E12AE4CF07F0E4CF06F092
:103F0000E4CF05F0E4CF04F0E4CF03F0E4CF02F017
:103F1000E4CF01F0E4CF00F0E4CFD9FF1200D9CF15
:103F2000E5FFE1CFD9FF00C0E5FF01C0E5FF02C01A
:103F3000E5FF03C0E5FF04C0E5FF05C0E5FF06C0DF
:103F4000E5FF07C0E5FF08C0E5FF09C0E5FF0AC0BF
:103F5000E5FF0BC0E5FF020EDBCF00F0030EDBCF69
:103F600001F0040EDBCF02F0050EDBCF03F0060EEE
:103F7000DBCF04F0070EDBCF05F0080EDBCF06F039
:103F8000090EDBCF07F00201366B0201376B0B0E17
:103F9000096E7E0E086E800E0A6E000EE56E080E2B
:103FA000E56E0A50E56E0950E56E0850E56E20ECAE
:103FB00049F0050EE1260B017F51E56E0B017E51A4
:103FC000E56E81EC54F0086EF3CF09F0020EE126A5
:103FD00008500B017E6F09500B017F6F0B0181515F
:103FE000E56E0B018051E56E81EC54F0086EF3CF65
:103FF00009F0020EE12608500B01806F09500B01F9
:10400000816F0B018351E56E0B018251E56E81ECEE
:1040100054F0086EF3CF09F0020EE126F80E0826E0
:10402000D8A0090608500B01826F09500B01836F5D
:104030000B0184510B018511D8B496D000C0E9FF63
:1040400001C0F3FF025018EC56F0086EF3CF09F0F0
:10405000F4CF0AF0E9CF0BF008500B01446F095080
:104060000B01456F0A500B01466F0B500B01476F58
:1040700003C0E9FF04C0F3FF055018EC56F0086ECA
:10408000F3CF09F0F4CF0AF0E9CF0BF008500B01A1
:10409000486F09500B01496F0A500B014A6F0B50D2
:1040A0000B014B6F0B014C6B110E0B014D6F06504A
:1040B0000B014E6F07500B014F6F0750E56E065016
:1040C000E56E81EC54F0086EF3CF09F0020EE126A4
:1040D00008500B014E6F09500B014F6F0B0E096E0C
:1040E000440E086E800E0A6E000EE56E0C0EE56E34
:1040F0000A50E56E0950E56E0850E56E66EC19F061
:10410000086EF3CF09F0050EE126081E091E0850BF
:104110000B01DE6F09500B01DF6F000EE56E000E24
:10412000E56E00EC54F0020EE1260750E56E0650F5
:10413000E56E6AEC0DF0066EF3CF07F0020EE12695
:1041400006500B01E06F07500B01E16F0B01DE51D0
:104150000B01E01905E10B01DF510B01E11904E04E
:104160009FEC4FF0E86A35D00B0E076E7E0E066EA0
:10417000800E086E0550E56E0450E56E0350E56E46
:104180000250E56E0150E56E0050E56E0850E56E98
:104190000750E56E0650E56E07EC11F0006E090E53
:1041A000E12600C001F0026A0150FF0A02E102505C
:1041B00001E004D09FEC4FF0E86A0BD000C05BFE3A
:1041C00082CB36F283CB37F2020149810201499357
:1041D000010EE4CF0BF0E4CF0AF0E4CF09F0E4CF16
:1041E00008F0E4CF07F0E4CF06F0E4CF05F0E4CF29
:1041F00004F0E4CF03F0E4CF02F0E4CF01F0E4CF29
:1042000000F0E4CFD9FF1200D9CFE5FFE1CFD9FF0D
:1042100000C0E5FF01C0E5FF02C0E5FF03C0E5FF08
:1042200004C0E5FF05C0E5FF06C0E5FF07C0E5FFE8
:1042300008C0E5FF02014A510E0DF3CF00F0016AFC
:10424000600E0026000E01220150016E0050006E2B
:10425000800E026E02013251080F036E000E020141
:104260003321046E00500C0F056E000E0120066E07
:10427000000E0220076E05C0E9FF06C0F3FF0750DD
:1042800088EC56F0056EF3CF06F00650E56E05504B
:10429000E56E81EC54F0056EF3CF06F0020EE126D8
:1042A00005500B01766F06500B01776F00500A0F17
:1042B000056E000E0120066E000E0220076E05C07E
:1042C000E9FF06C0F3FF075088EC56F0056EF3CF08
:1042D00006F00650E56E0550E56E81EC54F0056E73
:1042E000F3CF06F0020EE12605500B01786F065061
:1042F0000B01796F0450E56E0350E56E81EC54F0CC
:10430000056EF3CF06F0020EE12605500B017A6F21
:1043100006500B017B6F0B017C6B0B017D6B080161
:10432000C8510B01386F0801C9510B01396F0801E1
:10433000CA510B013A6F0801CB510B013B6F00C012
:10434000E9FF01C0F3FF025018EC56F0056EF3CF01
:1043500006F0F4CF07F0E9CF08F005500B013C6FF1
:1043600006500B013D6F07500B013E6F08500B01CB
:104370003F6F0B01406B110E0B01416F03500B019E
:10438000426F04500B01436F0450E56E0350E56E1D
:1043900081EC54F0056EF3CF06F0020EE1260550D5
:1043A0000B01426F06500B01436F0B0E066E380E69
:1043B000056E800E076E000EE56E0C0EE56E075062
:1043C000E56E0650E56E0550E56E66EC19F0056E7B
:1043D000F3CF06F0050EE126051E061E05500B0163
:1043E0007C6F06500B017D6F1A0EE56E190EE56E9F
:1043F00088EC51F0020EE1260450E56E0350E56EA4
:10440000110EE56E0250E56E0150E56E0050E56E4E
:10441000A6EC34F0060EE1260B0E016E760E006E51
:10442000800E026E000EE56E080EE56E0250E56E1F
:104430000150E56E0050E56E09EC4FF0050EE126E7
:104440001A0EE56E2D0EE56ECAEC51F0006EF3CF3C
:1044500001F0020EE1260450E56E0350E56E6AECB1
:104460000DF00201346FF3CF35F2020EE126015058
:10447000E56E0050E56ECAEC51F0020EE1261A0E10
:10448000E56E330EE56E88EC51F0020EE126020E69
:10449000016E340E006E800E026E000EE56E020E8E
:1044A000E56E0250E56E0150E56E0050E56E09ECD8
:1044B0004FF0050EE1266DEC53F00201326B020164
:1044C000336BFF0E0E015A6FE4CF08F0E4CF07F014
:1044D000E4CF06F0E4CF05F0E4CF04F0E4CF03F03E
:1044E000E4CF02F0E4CF01F0E4CF00F0E4CFD9FF55
:1044F0001200D9CFE5FFE1CFD9FF00C0E5FF01C031
:10450000E5FF02C0E5FF03C0E5FF04C0E5FF05C00D
:10451000E5FF06C0E5FF07C0E5FF08C0E5FF0B0E9D
:10452000016EA60E006E800E026E0250E56E015006
:10453000E56E0050E56EAEEC4BF0030EE126000E8A
:10454000E56E430EE56E000EE56E000EE56E000EA4
:10455000E56E000EE56E000EE56ECCEC27F0006E09
:10456000070EE12600C03CF2000EE56E440EE56E3B
:10457000000EE56E000EE56E000EE56E000EE56EB7
:10458000000EE56ECCEC27F0016E070EE12601C0AF
:104590003DF2000EE56E000EE56E000EE56E000EBB
:1045A000E56E000EE56E000EE56E430EE56ECCEC9A
:1045B00027F0026E070EE12602C03EF2036A0050A9
:1045C000FF0A02E103500DE0006A0250FF0A02E117
:1045D000005007E0006A0150FF0A02E1005001E0CC
:1045E00029D0000EE56E860EE56E040EE56E000E17
:1045F000E56EDEEC4AF0040EE126900E006E580ED9
:10460000016E060E026E036A00C004F001C005F0E0
:1046100002C006F003C007F0FF0E0026FF0E0122C5
:10462000FF0E0222FF0E0322045005100610071091
:10463000EBE1B9D0000EE56E860EE56E1C0EE56E60
:10464000000EE56EDEEC4AF0040EE126900E006EE0
:10465000580E016E060E026E036A00C004F001C01F
:1046600005F002C006F003C007F0FF0E0026FF0EA3
:104670000122FF0E0222FF0E032204500510061035
:104680000710EBE10B0E016EAA0E006E800E026E9B
:104690000250E56E0150E56E0050E56E3DEC0FF006
:1046A000030EE126020E016E3C0E006E800E026EBD
:1046B0000250E56E0150E56E0050E56E3DEC38F0BD
:1046C000030EE12602013E51E56E38EC53F0006E18
:1046D000F3CF01F0E12A00500110D4E00B0E016E7F
:1046E000AA0E006E800E026E0B0E046EA60E036EF6
:1046F000800E056E0550E56E0450E56E0350E56EC4
:104700000250E56E0150E56E0050E56E35EC44F068
:10471000006E060EE12600501DE0020E016E3D0EF9
:10472000006E800E026E020E046E3E0E036E800E50
:10473000056E0550E56E0450E56E0350E56E0250BF
:10474000E56E0150E56E0050E56E21EC16F0060EA8
:10475000E12698D7020E016E3C0E006E800E026EAE
:10476000020E046E3D0E036E800E056E020E076E85
:104770003E0E066E800E086E0850E56E0750E56E20
:104780000650E56E0550E56E0450E56E0350E56E8B
:104790000250E56E0150E56E0050E56EF8EC06F053
:1047A000090EE1266FD7E4CF08F0E4CF07F0E4CF9D
:1047B00006F0E4CF05F0E4CF04F0E4CF03F0E4CF5B
:1047C00002F0E4CF01F0E4CF00F0E4CFD9FF120013
:1047D000D9CFE5FFE1CFD9FF00C0E5FF01C0E5FF7C
:1047E00002C0E5FF03C0E5FF04C0E5FF05C0E5FF2B
:1047F00006C0E5FF07C0E5FF08C0E5FF09C0E5FF0B
:104800000AC0E5FF0BC0E5FF0CC0E5FF0DC0E5FFEA
:104810000EC0E5FF0FC0E5FF10C0E5FF11C0E5FFCA
:1048200012C0E5FF13C0E5FF14C0E5FF15C0E5FFAA
:1048300016C0E5FF17C0E5FF18C0E5FF19C0E5FF8A
:104840001AC0E5FF1BC0E5FF1CC0E5FF1DC0E5FF6A
:10485000C2CF00F0C0CF01F0D5CF02F0D6CF03F029
:10486000D7CF04F0010EC26E3F0EC06E880ED56E1B
:10487000056A066A076A086A096A0A6AD3EC54F08C
:104880000B6EF3CF0CF0F4CF0DF0E9CF0EF00F6A02
:10489000D76AD66AC2820400C2B2FED7D6500201DD
:1048A000206FD7500201216FD3EC54F0106EF3CF7C
:1048B00011F0F4CF12F0E9CF13F020C212F021C2B0
:1048C00013F0146A156A125005261350062214506C
:1048D000072215500822000E085C08E19E0E075CB6
:1048E00005E1F20E065C02E11A0E055CD8A048D084
:1048F000D3EC54F0126EF3CF13F0F4CF14F0E9CFF1
:1049000015F0D3EC54F0166EF3CF17F0F4CF18F087
:10491000E9CF19F0183017301D6E1C6A1C32164092
:10492000800B1B6E1650E8407F0B1C121A6A1A503F
:1049300012121B5013121C5014121D501512D3ECDE
:1049400054F0166EF3CF17F0F4CF18F0E9CF19F04A
:104950001640E840C00B1D6E1A6A1B6A1C6A1A508A
:1049600012121B5013121C5014121D50151212500B
:104970000B1A13500C1A14500D1A15500E1A47D05A
:1049800009500201201905E10A500201211901E133
:104990007FD702012051095C126E020121510A5891
:1049A000136E1250102613501122126A136A1350FC
:1049B000E56E1250E56E1150E56E1050E56EDDECBF
:1049C00056F0040EE12620C209F021C20AF00B5075
:1049D0000B260C360D360E36D3EC54F0106EF3CF9A
:1049E00011F0F4CF12F0E9CF13F01350800F800FC5
:1049F00008E1000E125C05E1400E115C02E1000EC0
:104A0000105C01E30B800F2A0F50D8A441D700C0DF
:104A1000C2FF01C0C0FF04C0D7FF03C0D6FF02C061
:104A2000D5FF0EC0E9FF0DC0F4FF0CC0F3FF0B5023
:104A3000E4CF1DF0E4CF1CF0E4CF1BF0E4CF1AF07C
:104A4000E4CF19F0E4CF18F0E4CF17F0E4CF16F07C
:104A5000E4CF15F0E4CF14F0E4CF13F0E4CF12F07C
:104A6000E4CF11F0E4CF10F0E4CF0FF0E4CF0EF07C
:104A7000E4CF0DF0E4CF0CF0E4CF0BF0E4CF0AF07C
:104A8000E4CF09F0E4CF08F0E4CF07F0E4CF06F07C
:104A9000E4CF05F0E4CF04F0E4CF03F0E4CF02F07C
:104AA000E4CF01F0E4CF00F0E4CFD9FF1200D9CF7A
:104AB000E5FFE1CFD9FF00C0E5FF01C0E5FF02C07F
:104AC000E5FF03C0E5FF04C0E5FF05C0E5FF06C044
:104AD000E5FF07C0E5FF0E01515106E00E015151FF
:104AE000010A01E1C4D00FD10E0E016E610E006EFD
:104AF000800E026E000EE56E1C0EE56E0250E56E35
:104B00000150E56E0050E56E20EC49F0050EE126FF
:104B10009FEC4FF00E0E016E610E006E800E026E65
:104B20000250E56E0150E56E0050E56E90EC3EF0EF
:104B3000030EE1260E016151010A03E10E016251EB
:104B400001E008D00E016551060A04E10E0166512C
:104B5000040A02E0010ED8D067CE00F068CE01F062
:104B60000050020A02E1015001E032D00B0E036E48
:104B7000540E026E800E046E0E0E066E690E056EE9
:104B8000800E076E000EE56E060EE56E0750E56EB0
:104B90000650E56E0550E56E0450E56E0350E56E77
:104BA0000250E56ED1EC45F0080EE1260E016F5182
:104BB0000B01506F0E0170510B01516F0E017151BD
:104BC0000B01526F0E0172510B01536F010E9CD0FD
:104BD0000050010A02E1015001E049D00E01795173
:104BE0000801C8190FE10E017A510801C9190AE13B
:104BF0000E017B510801CA1905E10E017C51080123
:104C0000CB1902E0010E80D00E016F510B015A6FDB
:104C10000E0170510B015B6F0E0171510B015C6F46
:104C20000E0172510B015D6F0B0E016E5E0E006E78
:104C3000800E026E0E0E046E690E036E800E056EFF
:104C4000000EE56E060EE56E0550E56E0450E56E4D
:104C50000350E56E0250E56E0150E56E0050E56EC2
:104C6000D1EC45F0080EE126010E0E01516F020E47
:104C70000E01676F0E01686B0E0E016E730E006EF3
:104C8000800E026E0B0E046E5E0E036E800E056EBD
:104C9000000EE56E060EE56E0550E56E0450E56EFD
:104CA0000350E56E0250E56E0150E56E0050E56E72
:104CB000D1EC45F0080EE1260B015A510E01796F37
:104CC0000B015B510E017A6F0B015C510E017B6F82
:104CD0000B015D510E017C6F0E0E016E610E006EB8
:104CE000800E026E0250E56E0150E56E0050E56EDA
:104CF000B0EC32F0006E030EE126005002E1E86AEB
:104D000003D00E01516B010EE4CF07F0E4CF06F0A3
:104D1000E4CF05F0E4CF04F0E4CF03F0E4CF02F0F9
:104D2000E4CF01F0E4CF00F0E4CFD9FF1200D9CFF7
:104D3000E5FFE1CFD9FF00C0E5FF01C0E5FF02C0FC
:104D4000E5FF03C0E5FF04C0E5FF05C0E5FF06C0C1
:104D5000E5FF07C0E5FF08C0E5FF020EE56E000EA7
:104D6000E56EA0EC53F0020EE126480E006E0D0E2B
:104D7000016E026A036A00C004F001C005F002C0BF
:104D800006F003C007F0FF0E0026FF0E0122FF0E03
:104D90000222FF0E03220450051006100710EBE15B
:104DA000006A00C001F0026A000E025C02E1100E0F
:104DB000015CD8B057D0220E0024016E026A0E0E9C
:104DC000022201C0E9FF02C0EAFFEFCF01F001506B
:104DD00019E100C001F001C002F0036A000E035C9B
:104DE00002E1100E025C0EE2220E0124026E036A42
:104DF0000E0E032202C0E9FF03C0EAFF200EEF6E91
:104E0000012AE9D7220E0024016E026A0E0E022248
:104E100001C0E9FF02C0EAFFEFCF01F00150E56EEB
:104E2000010EE56EA0EC53F0020EE126550E016E68
:104E3000026A036A046A01C005F002C006F003C0FA
:104E400007F004C008F0FF0E0126FF0E0222FF0E3D
:104E50000322FF0E04220550061007100810EBE194
:104E6000002A9FD7C00EE56E000EE56EA0EC53F051
:104E7000020EE126550E006E016A026A036A00C046
:104E800004F001C005F002C006F003C007F0FF0EF9
:104E90000026FF0E0122FF0E0222FF0E0322045005
:104EA000051006100710EBE1100E006E00C001F0B7
:104EB000026A000E025C02E1200E015CD8B057D0FD
:104EC000220E0024016E026A0E0E022201C0E9FFCA
:104ED00002C0EAFFEFCF01F0015019E100C001F07C
:104EE00001C002F0036A000E035C02E1200E025CC6
:104EF0000EE2220E0124026E036A0E0E032202C08D
:104F0000E9FF03C0EAFF200EEF6E012AE9D7220E67
:104F10000024016E026A0E0E022201C0E9FF02C0E7
:104F2000EAFFEFCF01F00150E56E010EE56EA0EC57
:104F300053F0020EE126550E016E026A036A046AFE
:104F400001C005F002C006F003C007F004C008F07D
:104F5000FF0E0126FF0E0222FF0E0322FF0E042287
:104F60000550061007100810EBE1002A9FD7E4CF88
:104F700008F0E4CF07F0E4CF06F0E4CF05F0E4CF8B
:104F800004F0E4CF03F0E4CF02F0E4CF01F0E4CF8B
:104F900000F0E4CFD9FF1200D9CFE5FFE1CFD9FF70
:104FA00000C0E5FF01C0E5FF02C0E5FF03C0E5FF6B
:104FB00004C0E5FF05C0E5FF06C0E5FF07C0E5FF4B
:104FC00008C0E5FF09C0E5FF0AC0E5FF0BC0E5FF2B
:104FD0000CC0E5FF0DC0E5FF0EC0E5FF0FC0E5FF0B
:104FE00010C0E5FF11C0E5FF12C0E5FF13C0E5FFEB
:104FF000020EDBCF00F0030EDBCF01F0040EDBCF9F
:1050000002F0050EDBCF03F0060EDBCF04F0070E37
:10501000DBCF05F0080EDBCF06F0000E086E600E49
:10502000076E800E096E0A6A07C00BF008C00CF00C
:1050300009C00DF00E6A0EC00FF0106A000E105C71
:1050400002E10A0E0F5CD8B0ACD00B500C0F0F6E03
:10505000000E0C20106E000E0D20116E0FC0E9FF27
:1050600010C0F3FF115088EC56F0126EF3CF13F01E
:1050700012501310D8A485D000C0E5FF01C0F4FF82
:105080000FC0E9FF10C0F3FF1150C5EC57F00050FE
:10509000011032E1200E0201315D03E1010E020137
:1050A000305D08E2100E0201315D03E1000E0201E5
:1050B000305D05E20201306B100E0201316F0750C6
:1050C0000C0F0F6E000E0820106E000E0920116EDE
:1050D00030C212F031C213F00201302B02E30201A0
:1050E000312B12C0E5FF13C0F4FF0FC0E9FF10C061
:1050F000F3FF1150C5EC57F002500310041015E0F7
:10510000000EE56E0A0EE56E0450E56E0350E56E86
:105110000250E56E0950E56E0850E56E0750E56EE9
:10512000D1EC45F0080EE12614D007C00FF008C0FE
:1051300010F009C011F0000EE56E0A0EE56EFF0ECC
:10514000E56E1050E56E0F50E56E49EC4BF0050E24
:10515000E12607500A0F0F6E000E0820106E000E99
:105160000920116E05C0E5FF06C0F4FF0FC0E9FF7E
:1051700010C0F3FF1150C5EC57F00AC04AF20A50B4
:1051800011D00E0E0B26000E0C22000E0D220BC0AD
:1051900007F00CC008F00DC009F00E2A0EC00AF08E
:1051A0004AD7E868E4CF13F0E4CF12F0E4CF11F06F
:1051B000E4CF10F0E4CF0FF0E4CF0EF0E4CF0DF029
:1051C000E4CF0CF0E4CF0BF0E4CF0AF0E4CF09F029
:1051D000E4CF08F0E4CF07F0E4CF06F0E4CF05F029
:1051E000E4CF04F0E4CF03F0E4CF02F0E4CF01F029
:1051F000E4CF00F0E4CFD9FF1200D9CFE5FFE1CF33
:10520000D9FF00C0E5FF01C0E5FF02C0E5FF03C014
:10521000E5FF04C0E5FF05C0E5FF06C0E5FF07C0E8
:10522000E5FF08C0E5FF000EE56E200EE56E200EDE
:10523000E56E0E0EE56E220EE56E49EC4BF0050EA6
:10524000E1260E01426B90909092966A9992999401
:105250009990A00E006E090E016E010E026E036A97
:1052600000C004F001C005F002C006F003C007F062
:10527000FF0E0026FF0E0122FF0E0222FF0E032268
:105280000450051006100710EBE19094030E8D6E8C
:1052900000000000006A00C001F0026A000E025C1B
:1052A00002E1030E015C39E29080110E016E026A88
:1052B000036A046A01C005F002C006F003C007F0EB
:1052C00004C008F0FF0E0126FF0E0222FF0E03228B
:1052D000FF0E04220550061007100810EBE1909015
:1052E000480E016E0D0E026E036A046A01C005F0DD
:1052F00002C006F003C007F004C008F0FF0E01264C
:10530000FF0E0222FF0E0322FF0E0422055006109C
:1053100007100810EBE1002ABED7380EE56E000E2C
:10532000E56EA0EC53F0020EE126550E006E016A08
:10533000026A036A00C004F001C005F002C006F072
:1053400003C007F0FF0E0026FF0E0122FF0E02220F
:10535000FF0E03220450051006100710EBE1060EA5
:10536000E56E000EE56EA0EC53F0020EE126550E40
:10537000006E016A026A036A00C004F001C005F011
:1053800002C006F003C007F0FF0E0026FF0E012248
:10539000FF0E0222FF0E0322045005100610071014
:1053A000EBE10C0EE56E000EE56EA0EC53F0020E84
:1053B000E126550E006E016A026A036A00C004F01D
:1053C00001C005F002C006F003C007F0FF0E002682
:1053D000FF0E0122FF0E0222FF0E032204500510D1
:1053E00006100710EBE1010EE56E000EE56EA0EC75
:1053F00053F0020EE126480E006E0D0E016E026A99
:10540000036A00C004F001C005F002C006F003C04A
:1054100007F0FF0E0026FF0E0122FF0E0222FF0EF4
:1054200003220450051006100710EBE1E4CF08F04A
:10543000E4CF07F0E4CF06F0E4CF05F0E4CF04F0CA
:10544000E4CF03F0E4CF02F0E4CF01F0E4CF00F0CA
:10545000E4CFD9FF1200D9CFE5FFE1CFD9FF00C0DB
:10546000E5FF01C0E5FF02C0E5FF03C0E5FF04C0A2
:10547000E5FF05C0E5FF06C0E5FF07C0E5FF08C082
:10548000E5FF09C0E5FF0AC0E5FF0BC0E5FF0CC062
:10549000E5FF0DC0E5FF0EC0E5FF0FC0E5FF020E02
:1054A000DBCF00F0030EDBCF01F0040EDBCF02F008
:1054B000050EDBCF03F0060EDBCF04F0070EDBCFCB
:1054C00005F0080EDBCF06F0090EDBCF07F00A0E61
:1054D000DBCF08F00B0EDBCF09F00C0EDBCF0AF0B0
:1054E0000D0EDBCF0BF0010E0D6EEA0E0C6E800E72
:1054F0000E6E000EE56E140EE56E0E50E56E0D504C
:10550000E56E0C50E56E20EC49F0050EE126F00E3C
:105510000101EA150C6E0D6A0C50400A02E10D50B3
:1055200002E0E86AA0D00101F0511F0B03E1010184
:10553000F15102E0E86A97D00F0E0101EA150C6EF6
:105540000C44E844FC0B0201456F45C20CF00D6AA7
:105550000D50E56E0C50E56E000EE56E000EE56E2A
:10556000EDEC40F00C6EF3CF0DF0040EE1260C5084
:105570000201286F0D500201296F45C20CF00D6A1F
:105580000D50E56E0C50E56E76EC4CF0020EE12607
:10559000020128510201291102E0E86A64D0010EDB
:1055A0000D6EEA0E0C6E800E0E6E0E50E56E0D50F6
:1055B000E56E0C50E56E02EC3CF0030EE126005067
:1055C0000110021017E0FAC10CF0FBC10DF0FCC194
:1055D0000EF0FDC10FF00CC0E5FF0DC0F4FF0EC0D2
:1055E000F6FF0FC0F7FF00C0E9FF01C0F3FF025054
:1055F00043EC57F0F6C100F0F7C101F0F8C102F03A
:10560000F9C10CF000C0E5FF01C0F4FF02C0F6FFD5
:105610000CC0F7FF03C0E9FF04C0F3FF055043ECE3
:1056200057F0F3C100F000C0E5FF06C0E9FF07C076
:10563000F3FF0850E5EC57F045C200F0016A005056
:105640000101EC5D006E01500101ED59016E00C0D9
:10565000E5FF01C0F4FF09C0E9FF0AC0F3FF0B50EA
:10566000C5EC57F0010EE4CF0FF0E4CF0EF0E4CF1D
:105670000DF0E4CF0CF0E4CF0BF0E4CF0AF0E4CF70
:1056800009F0E4CF08F0E4CF07F0E4CF06F0E4CF70
:1056900005F0E4CF04F0E4CF03F0E4CF02F0E4CF70
:1056A00001F0E4CF00F0E4CFD9FF1200D9CFE5FF3D
:1056B000E1CFD9FF00C0E5FF01C0E5FF02C0E5FF73
:1056C00003C0E5FF04C0E5FF05C0E5FF06C0E5FF38
:1056D00007C0E5FF08C0E5FF09C0E5FF0AC0E5FF18
:1056E0000BC0E5FF0CC0E5FF0DC0E5FF0EC0E5FFF8
:1056F0000FC0E5FF10C0E5FF11C0E5FF12C0E5FFD8
:1057000013C0E5FF020EDBCF00F0030EDBCF01F08C
:10571000040EDBCF02F0050EDBCF03F0060EDBCF6D
:1057200004F0070EDBCF05F0080EDBCF06F0090E04
:10573000DBCF07F00A0EDBCF08F00B0EDBCF09F052
:105740000C0EDBCF0AF00D0EDBCF0BF00C6A0D6AEE
:105750000E6A0F6A0D50800F800F02E10A0E0C5C7A
:10576000D8B09ED0000E0E24106E090E0F20116EC0
:105770001150116E1050106E800E126E1250E56EA8
:105780001150E56E1050E56ED3EC4CF0106E030E28
:10579000E1261050D8B47CD0000E0E24106E090EF5
:1057A0000F20116E1150116E1050106E800E126E7F
:1057B000000EE56E040EE56E0250E56E0150E56EDA
:1057C0000050E56E1250E56E1150E56E1050E56E1A
:1057D000D1EC45F0080EE126000E0E24106E090EE5
:1057E0000F20116E040E1026D8B0112A1150116E20
:1057F0001050106E800E126E000EE56E060EE56EF5
:105800000550E56E0450E56E0350E56E1250E56EEE
:105810001150E56E1050E56ED1EC45F0080EE12612
:10582000000E0E24106E090E0F20116E10500C0F7A
:10583000126E000E1120136E12C0E9FF13C0EAFFB2
:105840002C0EEE6E010EEE6E000EEE6E000EEF6E82
:105850001050100F126E000E1120136E12C0E9FFCF
:1058600013C0EAFF06C0EEFF07C0EEFF08C0EEFF60
:1058700009C0EFFF0A0E1026D8B0112A10C0E9FFA8
:1058800011C0EAFF0AC0EEFF0BC0EFFF010E09D006
:10589000140E0E26D8B00F2A0C2AD8B00D2A5AD7CB
:1058A000E86AE4CF13F0E4CF12F0E4CF11F0E4CFD4
:1058B00010F0E4CF0FF0E4CF0EF0E4CF0DF0E4CF22
:1058C0000CF0E4CF0BF0E4CF0AF0E4CF09F0E4CF22
:1058D00008F0E4CF07F0E4CF06F0E4CF05F0E4CF22
:1058E00004F0E4CF03F0E4CF02F0E4CF01F0E4CF22
:1058F00000F0E4CFD9FF1200D9CFE5FFE1CFD9FF07
:1059000000C0E5FF01C0E5FF02C0E5FF03C0E5FF01
:1059100004C0E5FF05C0E5FF06C0E5FF07C0E5FFE1
:1059200008C0E5FF09C0E5FF0AC0E5FF0BC0E5FFC1
:105930000CC0E5FF0DC0E5FF0EC0E5FF0FC0E5FFA1
:1059400010C0E5FF020EDBCF00F0030EDBCF01F04D
:10595000040EDBCF02F0050EDBCF03F0060EDBCF2B
:1059600004F0070EDBCF05F0080EDBCF06F0090EC2
:10597000DBCF07F00A0EDBCF08F0350EE56E00C076
:10598000E9FF01C0F3FF0250E5EC57F00050010FB2
:10599000096E000E01200A6E000E02200B6E010E31
:1059A000E56E09C0E9FF0AC0F3FF0B50E5EC57F0C4
:1059B0000050020F096E000E01200A6E000E022038
:1059C0000B6E030EE56E09C0E9FF0AC0F3FF0B5032
:1059D000E5EC57F00050030F096E000E01200A6E2F
:1059E000000E02200B6E320EE56E09C0E9FF0AC000
:1059F000F3FF0B50E5EC57F00050040F096E000E5A
:105A000001200A6E000E02200B6E040EE56E09C026
:105A1000E9FF0AC0F3FF0B50E5EC57F0050E096EE5
:105A20000A6A0A50800F800F02E1090E095C2FE21A
:105A3000095000240B6E0A5001200C6EE86A0ABE61
:105A4000E86802200D6E09500E6EFB0E0E26000E49
:105A50000EBEFF0E106E0F6E06500E2607500F2260
:105A6000085010220EC0E9FF0FC0F3FF105012ECD7
:105A700057F00E6E0EC0E5FF0BC0E9FF0CC0F3FF40
:105A80000D50E5EC57F0092AD8B00A2ACAD70050C1
:105A9000090F066E000E0120076E000E0220086E30
:105AA000360EE56E06C0E9FF07C0F3FF0850E5ECCF
:105AB00057F00A0E0026000E0122000E0222040EEC
:105AC000E56E00C0E9FF01C0F3FF0250E5EC57F0BE
:105AD0000F0EE56E000EF46E03C0E9FF04C0F3FF85
