:020000040000FA
:04000000FCEF5EF0C3
:0400080054EF5BF066
:0800180056EF4DF0D9CFE5FFD2
:10002000E1CFD9FF00C0E5FF01C0E5FF02C0E5FF59
:1000300003C0E5FF04C0E5FF05C0E5FF0201AC6BAE
:10004000020E016EAE0E006E800E026E0250E56E64
:100050000150E56E0050E56E2CEC58F0030EE126E1
:10006000AEC200F0016A0050020A02E1015002E053
:100070003AEF03F00F0E006E020E026EAE0E016E2E
:10008000800E036E0350E56E0250E56E0150E56E82
:100090002CEC58F0030EE12600060050EDE10B01B8
:1000A0001EA516D0040E006E020E026EAE0E016E7C
:1000B000800E036E0350E56E0250E56E0150E56E52
:1000C0002CEC58F0030EE12600060050EDE116D0AE
:1000D0000B0E026E2B0E016E800E036E000EE56E8F
:1000E000040EE56E0350E56E0250E56E0150E56EBC
:1000F000C8EC4DF0050EE1260B013781080E006EAD
:10010000020E026EAE0E016E800E036E0350E56E9F
:100110000250E56E0150E56E2CEC58F0030EE1261E
:1001200000060050EDE1016A01C002F0036A000E12
:10013000035C02E1060E025C24E2020E036EAE0EC8
:10014000026E800E046E0450E56E0350E56E0250A0
:10015000E56E2CEC58F0030EE126F50E0124026E3C
:10016000036A080E032202C0E9FF03C0EAFFEFCFD3
:1001700002F00201AE51021802E071EF03F0012A11
:10018000D3D7CE0E006E020E026EAE0E016E800E42
:10019000036E0350E56E0250E56E0150E56E2CECE7
:1001A00058F0030EE12600060050EDE1016A020E50
:1001B000036EAE0E026E800E046E0450E56E0350A8
:1001C000E56E0250E56E2CEC58F0026E030EE1264F
:1001D0000250D8B43AEF03F0AEC202F0036A025004
:1001E000010A03E1035001E158D00250030A03E180
:1001F000035001E19CD00250330A03E1035001E1B6
:100200005AD10250350A02E103500EE00250360A7C
:1002100003E1035001E1F2D00250FF0A03E1035071
:1002200001E146D107EF03F0020E036EAE0E026E3F
:10023000800E046E0450E56E0350E56E0250E56ECC
:100240002CEC58F0030EE126AEC202F0036A025015
:10025000010A02E1035002E071EF03F0020E036EA7
:10026000AC0E026E800E046E0450E56E0350E56E17
:100270000250E56E2CEC58F0030EE1260B011EA592
:1002800036EF03F0ACC202F0036A0250020A04E146
:10029000035002E171EF03F0E9D1020E036EAE0EDE
:1002A000026E800E046E0450E56E0350E56E02503F
:1002B000E56E2CEC58F0030EE126AEC202F0036AA4
:1002C0000250040A02E1035002E071EF03F00B0157
:1002D0001EA516D0040E006E020E036EAE0E026E48
:1002E000800E046E0450E56E0350E56E0250E56E1C
:1002F0002CEC58F0030EE12600060050EDE1B6D1DB
:100300000B0E036E330E026E800E046E000EE56E51
:10031000040EE56E0450E56E0350E56E0250E56E86
:10032000C8EC4DF0050EE1260B0137859FD1020E7A
:10033000036EAD0E026E800E046E0450E56E035027
:10034000E56E0250E56E2CEC58F0030EE126ADC2CE
:1003500002F0036A000E035C02E1040E025CD8A006
:10036000C0D10B011EA516D0040E006E020E036E46
:10037000AE0E026E800E046E0450E56E0350E56E04
:100380000250E56E2CEC58F0030EE12600060050FA
:10039000EDE116D00B0E036E2F0E026E800E046E72
:1003A000000EE56E040EE56E0450E56E0350E56E3A
:1003B0000250E56EC8EC4DF0050EE1260B013783C7
:1003C000FC0E0201AD27ADC202F002C003F002062E
:1003D00002C0ADF20350D8B444D1020E046EAE0E8A
:1003E000036E800E056E0550E56E0450E56E0350F9
:1003F000E56E2CEC58F0030EE126E7D7020E046EF2
:10040000AE0E036E800E056E0550E56E0450E56E6F
:100410000350E56E2CEC58F0030EE126AEC203F05B
:10042000046A0350040A02E1045001E05AD1020EAA
:10043000046E1F0E036E800E056E0550E56E0450AF
:10044000E56E0350E56E2CEC58F0030EE126020E2B
:10045000046E1E0E036E800E056E0550E56E045090
:10046000E56E0350E56E2CEC58F0030EE126020E0B
:10047000046E1D0E036E800E056E0550E56E045071
:10048000E56E0350E56E2CEC58F0030EE126020EEB
:10049000046E1C0E036E800E056E0550E56E045052
:1004A000E56E0350E56E2CEC58F0030EE126DED02D
:1004B000010E016EDBD0020E046EAE0E036E800ED6
:1004C000056E0550E56E0450E56E0350E56E2CECAC
:1004D00058F0030EE126AEC203F0046A0350040A8A
:1004E00002E1045001E0FDD00B011EA515D0040E61
:1004F000006E020E046EAE0E036E800E056E055089
:10050000E56E0450E56E0350E56E2CEC58F0030EDA
:10051000E126002EEED7AAD00B0E036E260E006E3B
:10052000800E046E0450E56E0350E56E0050E56EDB
:100530002CEC58F0030EE1260B0E036E250E006E18
:10054000800E046E0450E56E0350E56E0050E56EBB
:100550002CEC58F0030EE1260B0E036E240E006EF9
:10056000800E046E0450E56E0350E56E0050E56E9B
:100570002CEC58F0030EE1260B0E036E230E006EDA
:10058000800E046E0450E56E0350E56E0050E56E7B
:100590002CEC58F0030EE1260B0123390F0B006EF3
:1005A0000B012439036EF00B031A002603320032CC
:1005B0000B012551E838E840F80B03120B012539EF
:1005C0000F0B046E0B012639056EF00B051A04267D
:1005D0000532043200500B01235D006E03500B0105
:1005E0002459036E04500B012559046E05500B016C
:1005F0002659056E00500B01236F03500B01246F29
:1006000004500B01256F05500B01266F2FD0020EF1
:10061000036EAD0E006E800E046E0450E56E035046
:10062000E56E0050E56E2CEC58F0030EE126ADC2ED
:1006300000F000C003F0000600C0ADF2035014E06B
:10064000020E046EAE0E036E800E056E0550E56E52
:100650000450E56E0350E56E2CEC58F0030EE126D5
:10066000E8D702C0ADF202D000C0ADF20150D8B45C
:10067000D7EF00F0ACC200F0016A0050020A16E1A8
:10068000015001E013D002011C510B01276F020140
:100690001D510B01286F02011E510B01296F020130
:1006A0001F510B012A6F0B011E8516D00B0127511C
:1006B00002011C190FE10B01285102011D190AE169
:1006C0000B01295102011E1905E10B012A510201FA
:1006D0001F1902E00201AC6B0BEC5EF00201AC51A1
:1006E00003D00BEC5EF0E86AE4CF05F0E4CF04F051
:1006F000E4CF03F0E4CF02F0E4CF01F0E4CF00F068
:10070000E4CFD9FF1200D9CFE5FFE1CFD9FF00C078
:10071000E5FF01C0E5FF02C0E5FF03C0E5FF04C03F
:10072000E5FF05C0E5FF06C0E5FF07C0E5FF08C01F
:10073000E5FF006A00C001F0026A000E025C02E1FF
:10074000010E015CD8B0E3EF06F0006A1DCB01F0AA
:100750000D0E015CD8B0E0EF06F009C0E5FF0AC05D
:10076000E5FF0A6A01340A36E8340A36FC0B096EE2
:10077000000EFB6E070EFA6E900E09260A50FA2242
:10078000D8B0FB2A0950E4CF0AF0E4CF09F0F96EA3
:10079000E2EF03F0E4EF03F007EF04F078EF04F08A
:1007A000BFEF04F00AEF05F0B1EF05F036EF06F009
:1007B0006CEF06F036EF06F06CEF06F036EF06F061
:1007C0006CEF06F0E0EF06F0000EE56E430EE56E0E
:1007D000000EE56E000EE56E000EE56E000EE56E95
:1007E000440EE56E3BEC29F0016E070EE126015048
:1007F0000B011C6F1CCB01F0026A0150FF0A04E1DF
:10080000025002E1E0EF06F0020E0B011D6F3C0EFC
:100810000B01236F0B01246B0B01256B0B01266B66
:100820000B01376B0B011E910B011E95DCEC5CF08C
:10083000016E0150D8B4E0EF06F00B011C51E56EDB
:1008400014EC57F0016EF3CF02F0E12A010E025CC6
:1008500002E12C0E015CD8A0E0EF06F0016A0B016A
:100860001EB9012A010E011A0150010BE838F46E7D
:100870000B011E51EF0BF4100B011E6F0B011C51ED
:100880000E0DF3CF01F0026A600E0126000E022267
:10089000000EE56E0A0EE56EFF0EE56E0250E56E87
:1008A0000150E56ED5EC50F0050EE126000EE56E28
:1008B000010EE56E6DEC14F0020EE12644EC5EF0E4
:1008C000016EF3CF02F0F4CF03F0E9CF04F0015052
:1008D0000B011F6F02500B01206F03500B01216FA2
:1008E00004500B01226F030E0B011D6FE0EF06F0A9
:1008F0000B011C51E56E60EC5AF0016EF3CF02F073
:10090000E12A000E025C02E1FA0E015C28E244ECEE
:100910005EF0016EF3CF02F0F4CF03F0E9CF04F004
:100920000B011F51015E0B012051025A0B01215195
:10093000035A0B012251045A000E045C08E1010E17
:10094000035C05E13D0E025C02E1E40E015CD8A00F
:10095000E0EF06F0020E0B011D6FE0EF06F00B0159
:100960001E870EEC00F0016E026A0150020A02E1DD
:10097000025002E0E0EF06F0040E0B011D6F0B01C8
:100980001C51E56E14EC57F0016EF3CF02F0E12A32
:10099000010E025C02E1020E015CD8A0E0EF06F05D
:1009A0000B011C510E0DF3CF01F0026A600E0126FF
:1009B000000E0222000EE56E0A0EE56EFF0EE56ED9
:1009C0000250E56E0150E56ED5EC50F0050EE126C3
:1009D000000EE56E030EE56E6DEC14F0020EE126DE
:1009E00044EC5EF0016EF3CF02F0F4CF03F0E9CFF8
:1009F00004F001500B011F6F02500B01206F0350D8
:100A00000B01216F04500B01226F050E0B011D6FAE
:100A1000E0EF06F00B011C51E56E60EC5AF0016E40
:100A2000F3CF02F0E12A000E025C02E1FA0E015C53
:100A300026E244EC5EF0016EF3CF02F0F4CF03F057
:100A4000E9CF04F00B011F51015E0B012051025A46
:100A50000B012151035A0B012251045A000E045C70
:100A600008E1010E035C05E13D0E025C02E1E40ECB
:100A7000015CD8A0A5D1020E0B011D6FA1D10EEC17
:100A800000F0016E026A0150050A02E1025007E01F
:100A90000150060A03E1025001E15FD091D10B0140
:100AA0001C51E56EA3EC57F0E12A0B011C6944ECE4
:100AB0005EF0016EF3CF02F0F4CF03F0E9CF04F063
:100AC00001500B011F6F02500B01206F03500B01EF
:100AD000216F04500B01226F060E0B011D6F0B01DD
:100AE0001E830B011E810B0137A110D00B012B516E
:100AF0000801C86F0B012C510801C96F0B012D5162
:100B00000801CA6F0B012E510801CB6F0B0137A5ED
:100B100010D00B0133510801CC6F0B013451080187
:100B2000CD6F0B0135510801CE6F0B013651080115
:100B3000CF6F0B0137A344D10B012F510801D06FA8
:100B40000B0130510801D16F0B0131510801D26FF7
:100B50000B0132510801D36F33D1020E0B011D6F0F
:100B60002FD144EC5EF0016EF3CF02F0F4CF03F02E
:100B7000E9CF04F01FCB05F020CB06F021CB07F026
:100B800022CB08F00550015E0650025A0750035A66
:100B90000850045A000E045C08E1000E035C05E1F5
:100BA0009E0E025C02E1F20E015CD8A009D123CBBB
:100BB00001F024CB02F025CB03F026CB04F0000E8D
:100BC000045C08E1000E035C05E1000E025C02E13A
:100BD000020E015C29E3F20E05269E0E0622000E8F
:100BE0000722000E082205500B011F6F06500B0153
:100BF000206F07500B01216F08500B01226FFF0E71
:100C00000126FF0E0222FF0E0322FF0E04220150D6
:100C10000B01236F02500B01246F03500B01256F52
:100C200004500B01266FCCD0000EE56E430EE56E2E
:100C3000000EE56E000EE56E000EE56E000EE56E30
:100C4000440EE56E3BEC29F0016E070EE1260150E3
:100C50000B011C6F1CCB01F0026A0150FF0A03E17B
:100C6000025001E1ADD0070E0B011D6F0B011C51AD
:100C7000E56E14EC57F0016EF3CF02F0E12A010E9D
:100C8000025C02E1020E015CD8A09AD0010EE56E72
:100C9000030EE56E6DEC14F0020EE1260B011E95BD
:100CA00044EC5EF0016EF3CF02F0F4CF03F0E9CF35
:100CB00004F001500B011F6F02500B01206F035015
:100CC0000B01216F04500B01226F1DCB01F0012A93
:100CD00001500B011D6F74D00B011C51E56E60ECCF
:100CE0005AF0016EF3CF02F0E12A000E025C02E13D
:100CF000FA0E015C30E244EC5EF0016EF3CF02F0DC
:100D0000F4CF03F0E9CF04F00B011F51015E0B019A
:100D10002051025A0B012151035A0B012251045A4E
:100D2000000E045C08E1010E035C05E13D0E025C6F
:100D300002E1E40E015CD8A043D00B011D29016E35
:100D400001500B011D6F0D0E015CD8A039D0020EB1
:100D50000B011D6F35D00EEC00F0016E026A0150E0
:100D6000050A02E1025006E00150060A29E102509C
:100D700024E026D00B011C51E56EA3EC57F0E12ACC
:100D80000B011C6944EC5EF0016EF3CF02F0F4CF6E
:100D900003F0E9CF04F001500B011F6F02500B016B
:100DA000206F03500B01216F04500B01226F060EC0
:100DB0000B011D6F0B011E8303D0020E0B011D6F73
:100DC000002A9AEF03F0E4CF08F0E4CF07F0E4CF75
:100DD00006F0E4CF05F0E4CF04F0E4CF03F0E4CF75
:100DE00002F0E4CF01F0E4CF00F0E4CFD9FF12002D
:100DF000D9CFE5FFE1CFD9FF00C0E5FF01C0E5FF96
:100E000002C0E5FF03C0E5FF04C0E5FF05C0E5FF44
:100E100006C0E5FF07C0E5FF08C0E5FF09C0E5FF24
:100E20000AC0E5FF0BC0E5FF0CC0E5FF0DC0E5FF04
:100E30000EC0E5FF0FC0E5FF10C0E5FF11C0E5FFE4
:100E400012C0E5FF13C0E5FF14C0E5FF15C0E5FFC4
:100E500016C0E5FF17C0E5FF18C0E5FF19C0E5FFA4
:100E60001AC0E5FF020EDBCF00F0030EDBCF01F06E
:100E7000040EDBCF02F0050EDBCF03F0060EDBCF56
:100E800004F0070EDBCF05F0080EDBCF06F0090EED
:100E9000DBCF07F00A0EDBCF08F00201B7510E0DD1
:100EA000F3CF09F00A6A600E0926000E0A220A50E2
:100EB0000A6E0950096E800E0B6E0950040F0C6EFD
:100EC000000E0A200D6E000E0B200E6E020E106E2C
:100ED000AB0E0F6E800E116E0E0E136E000E126EA4
:100EE000800E146E090E166E000E156E800E176EB3
:100EF000020E196E6D0E186E800E1A6E0850E56E99
:100F00000750E56E0650E56E1A50E56E1950E56E15
:100F10001850E56E1750E56E1650E56E1550E56EEB
:100F20001450E56E1350E56E1250E56E1150E56EEB
:100F30001050E56E0F50E56E54EC0DF00F0EE126EB
:100F40000BEC5EF0ABC206F0076A0650010A02E144
:100F5000075007E00650030A03E1075001E155D0AE
:100F60008BD100C0E9FF01C0F3FF025055EC5EF0E9
:100F7000066E0650E56E14EC57F0066EF3CF07F0E0
:100F8000E12A06500710EDE0E4EC4CF00201B75105
:100F90000E0DF3CF06F0076A600E0626000E07223C
:100FA00007500A6E0650096E800E0B6E0B50E56EF0
:100FB0000A50E56E0950E56E3AEC51F0030EE12659
:100FC000000EE56E9B0EE56E440EE56E000EE56EBE
:100FD0006AEC50F0040EE1260E0E076E000E066E4F
:100FE000800E086E0250E56E0150E56E0050E56E11
:100FF0000850E56E0750E56E0650E56E15EC1EF0E4
:10100000060EE12616EC53F043D1000EE56E9B0E62
:10101000E56E540EE56E000EE56E6AEC50F0040EBF
:10102000E126020E076E6A0E066E800E086E0850EC
:10103000E56E0750E56E0650E56E0E50E56E0D50FC
:10104000E56E0C50E56EDDEC40F0066E060EE12616
:101050000650D8B4B5D003C0E9FF04C0F3FF055073
:1010600055EC5EF0066E0650E56E14EC57F0066E19
:10107000F3CF07F0E12A06500710EDE00201B75167
:101080000E0DF3CF06F0076A600E0626000E07224B
:1010900007500A6E0650096E800E0B6E0B50E56EFF
:1010A0000A50E56E0950E56E3AEC51F0030EE12668
:1010B0006AC206F06BC207F06CC208F006500A0F55
:1010C0000C6E000E07200D6E000E08200E6E2C0E0A
:1010D000E56E010EF46E000EF66E000EF76E0CC09B
:1010E000E9FF0DC0F3FF0E5086EC5EF00650120FC4
:1010F0000C6E000E07200D6E000E08200E6E000E06
:10110000E56E000EF46E0CC0E9FF0DC0F3FF0E504B
:1011100008EC5FF00E0E0D6E000E0C6E800E0E6E63
:101120000E0E106E0C0E0F6E800E116E0650040F18
:10113000126E000E0720136E000E0820146E14505D
:10114000E56E1350E56E1250E56E0850E56E0750DF
:10115000E56E0650E56E1150E56E1050E56E0F50CD
:10116000E56E0E010751E56E0E010651E56E0E01AA
:101170000551E56E0E010451E56E0E50E56E0D5001
:10118000E56E0C50E56E95EC3FF0100EE1260E0E6C
:10119000076E000E066E800E086E050EE56E055099
:1011A000E56E0450E56E0350E56E0850E56E07509D
:1011B000E56E0650E56E81EC09F0070EE12668D079
:1011C00000C0E9FF01C0F3FF025055EC5EF0036E72
:1011D0000350E56E14EC57F0036EF3CF04F0E12AF0
:1011E00003500410EDE0E4EC4CF00201B7510E0D99
:1011F000F3CF03F0046A600E0326000E04220450AD
:101200000A6E0350096E800E0B6E0B50E56E0A508D
:10121000E56E0950E56E3AEC51F0030EE1260E0E34
:10122000046E000E036E800E056E0250E56E0150D6
:10123000E56E0050E56E0550E56E0450E56E035016
:10124000E56E15EC1EF0060EE126090E016E000E8D
:10125000006E800E026E02016E51E56E02016D514C
:10126000E56E0250E56E0150E56E0050E56E0AEC49
:1012700037F0050EE1260CD0000EE56E9B0EE56EF4
:10128000620EE56E000EE56E6AEC50F0040EE1268B
:10129000E4CF1AF0E4CF19F0E4CF18F0E4CF17F060
:1012A000E4CF16F0E4CF15F0E4CF14F0E4CF13F060
:1012B000E4CF12F0E4CF11F0E4CF10F0E4CF0FF060
:1012C000E4CF0EF0E4CF0DF0E4CF0CF0E4CF0BF060
:1012D000E4CF0AF0E4CF09F0E4CF08F0E4CF07F060
:1012E000E4CF06F0E4CF05F0E4CF04F0E4CF03F060
:1012F000E4CF02F0E4CF01F0E4CF00F0E4CFD9FF77
:101300001200D9CFE5FFE1CFD9FF00C0E5FF01C052
:10131000E5FF02C0E5FF03C0E5FF04C0E5FF05C02F
:10132000E5FF06C0E5FF07C0E5FF08C0E5FF09C00F
:10133000E5FF0AC0E5FF0BC0E5FF0CC0E5FF0DC0EF
:10134000E5FF0EC0E5FF0FC0E5FF10C0E5FF11C0CF
:10135000E5FF12C0E5FF13C0E5FF14C0E5FF020E74
:10136000DBCF00F0030EDBCF01F0040EDBCF02F089
:10137000050EDBCF03F0060EDBCF04F0070EDBCF4C
:1013800005F0080EDBCF06F003C0E9FF04C0F3FF51
:10139000055055EC5EF0076E0750E56E14EC57F003
:1013A000076EF3CF08F0E12A07500810EDE00201C4
:1013B000B7510E0DF3CF07F0086A600E0726000E36
:1013C00008220850086E0750076E800E096E0A6AE0
:1013D0000B6A0B50800F800F02E1040E0A5C18E2CA
:1013E0000A5007240C6E0B5008200D6EE86A0BBEE5
:1013F000E86809200E6EFF0EE56E0CC0E9FF0DC017
:10140000F3FF0E5028EC5FF00A2AD8B00B2AE1D780
:1014100007500A0F0A6E000E08200B6E000E0920FE
:101420000C6E440EE56E000EF46E0AC0E9FF0BC0B0
:10143000F3FF0C5008EC5FF0040E0726000E0822A4
:10144000000E092200501C0F0A6E000E01200B6EC8
:10145000000E02200C6E0D6A0E6A0E50800F800F77
:1014600002E1040E0D5C2BE20D5007240F6E0E50AE
:101470000820106EE86A0EBEE8680920116E0D5053
:101480000A24126E0E500B20136EE86A0EBEE86836
:101490000C20146E12C0E9FF13C0F3FF145055EC7A
:1014A0005EF0126E12C0E5FF0FC0E9FF10C0F3FF3F
:1014B000115028EC5FF00D2AD8B00E2ACED7055077
:1014C000E56E0450E56E0350E56E0250E56E015086
:1014D000E56E0050E56E15EC1EF0060EE126065096
:1014E000E56E36EC56F0E12A010EE56E36EC56F06C
:1014F000E12A040EE56E36EC56F0E12A080E016E84
:10150000CC0E006E800E026E000EE56E040EE56ECF
:101510000250E56E0150E56E0050E56EF9EC4BF0BF
:10152000050EE1261C0EE56E36EC56F0E12A040E9F
:10153000E56E36EC56F0E12A006A016A0150800F30
:10154000800F02E1040E005C2DE2140E0024026EF6
:10155000020E0120036EC80E0024046E080E012046
:10156000056ECC0E0024066E080E0120076E04C026
:10157000E9FF05C0EAFFEFCF04F006C0E9FF07C0AE
:10158000EAFFEFCF06F006500416061E06500412BE
:1015900002C0E9FF03C0EAFF04C0EFFF002AD8B091
:1015A000012ACCD7020E016E140E006E800E026E60
:1015B000000EE56E040EE56E0250E56E0150E56E1C
:1015C0000050E56EF9EC4BF0050EE126030EE56EDA
:1015D00036EC56F0E12A040EE56E36EC56F0E12AC0
:1015E000080E016ED00E006E800E026E000EE56ECB
:1015F000040EE56E0250E56E0150E56E0050E56E9A
:10160000F9EC4BF0050EE1262C0E0901FE6F010EE0
:101610000901FF6F330EE56E36EC56F0E12A040E39
:10162000E56E36EC56F0E12A000EE56E36EC56F02B
:10163000E12A000EE56E36EC56F0E12A090E016E45
:10164000FE0E006E800E026E000EE56E020EE56E5E
:101650000250E56E0150E56E0050E56E8EEC4FF0E5
:10166000050EE126360EE56E36EC56F0E12A040E44
:10167000E56E36EC56F0E12A080E016EC80E006EDB
:10168000800E026E000EE56E040EE56E0250E56EF1
:101690000150E56E0050E56EF9EC4BF0050EE126C9
:1016A0007EEC5DF083EC22F0E4CF14F0E4CF13F095
:1016B000E4CF12F0E4CF11F0E4CF10F0E4CF0FF05C
:1016C000E4CF0EF0E4CF0DF0E4CF0CF0E4CF0BF05C
:1016D000E4CF0AF0E4CF09F0E4CF08F0E4CF07F05C
:1016E000E4CF06F0E4CF05F0E4CF04F0E4CF03F05C
:1016F000E4CF02F0E4CF01F0E4CF00F0E4CFD9FF73
:101700001200D9CFE5FFE1CFD9FF00C0E5FF01C04E
:10171000E5FF02C0E5FF03C0E5FF04C0E5FF05C02B
:10172000E5FF06C0E5FF07C0E5FF08C0E5FF09C00B
:10173000E5FF0AC0E5FF0BC0E5FF0CC0E5FF020EA8
:10174000DBCF00F0030EDBCF01F00201246B0201BE
:10175000256B0201266B0201276B0201246B02013B
:10176000256B0201266B0201276B0201246B02012B
:10177000256B0201266B0201276B0201246B02011B
:10178000256B0201266B0201276B0201246B02010B
:10179000256B0201266B0201276B0201246B0201FB
:1017A000256B0201246B0201256B0201246B0201EF
:1017B000256B020124910201249302012495020168
:1017C0002497020124990201249B0201249D020115
:1017D000249F020125910201259302012595020112
:1017E0002597020125990201259B0201259D0201F1
:1017F000259F0201266B0201276B0201266B020165
:10180000276B0201266B0201276B02012691020160
:1018100026930201269502012697020126990201CC
:10182000269B0201269D0201269F020127910201AB
:1018300027930201279502012797020127990201A8
:10184000279B0201279D0201279F0201249102018B
:101850002493020124950201249702012499020194
:10186000249B0201249D0201249F02012591020173
:101870002593020125950201259702012599020170
:10188000259B0201259D0201259F0201269102014F
:10189000269302012695020126970201269902014C
:1018A000269B0201269D0201269F0201279102012B
:1018B0002793020127950201279702012799020128
:1018C000279B0201279D0201279F7BCF02F0036A1D
:1018D0000250056E046A7ACF02F0036A04500212C5
:1018E0000550031200500110D8B47DD0000E015CE9
:1018F00002E1150E005C04E3140E046E056A04D0C8
:1019000000C004F001C005F004C07FF205C080F201
:101910000A0E076EEA0E066E800E086E0550E56E22
:101920000450E56E0850E56E0750E56E0650E56E12
:10193000ACEC4EF0050EE1260450005E0550015A55
:1019400002017FA113D0EA0E02017F25046E0A0E68
:1019500002018021056E04C0E9FF05C0EAFF000E08
:10196000EF6E02017F2B02E30201802B0A0E056E4F
:10197000EA0E046E800E066E7FC207F080C208F089
:1019800007500810D8B4AED704C0E9FF05C0F3FF74
:101990000650CBEC5DF0096EF3CF0AF0020E042680
:1019A000000E0522000E06220B6A0C6A0201245169
:1019B0000926020125510A22020126510B220201A9
:1019C00027510C2209500201246F0A500201256F91
:1019D0000B500201266F0C500201276FFE0E0726E6
:1019E000D8A00806CDD70250006E016A00507A6E6A
:1019F0000350026E036A036A02507B6E24C200F039
:101A000025C201F0026A036A26C204F027C205F06B
:101A1000066A076A04500026055001220650022279
:101A20000750032200500201246F01500201256F6C
:101A300002500201266F03500201276F0201265156
:101A400002012425006E0201275102012521016EA9
:101A500000500201246F01500201256F0201241D74
:101A6000006E0201251D016E01C0F3FF0050E4CF9E
:101A70000CF0E4CF0BF0E4CF0AF0E4CF09F0E4CFB0
:101A800008F0E4CF07F0E4CF06F0E4CF05F0E4CFB0
:101A900004F0E4CF03F0E4CF02F0E4CF01F0E4CFB0
:101AA00000F0E4CFD9FF1200D9CFE5FFE1CFD9FF95
:101AB00000C0E5FF01C0E5FF02C0E5FF03C0E5FF90
:101AC00004C0E5FF05C0E5FF06C0E5FF07C0E5FF70
:101AD00008C0E5FF09C0E5FF0AC0E5FF0BC0E5FF50
:101AE0000CC0E5FF0DC0E5FF0EC0E5FF0FC0E5FF30
:101AF00010C0E5FF020EDBCF00F0030EDBCF01F0DC
:101B0000040EDBCF02F0050EDBCF03F0060EDBCFB9
:101B100004F0070EDBCF05F0080EDBCF06F0090E50
:101B2000DBCF07F00A0EDBCF08F00B0EDBCF09F09E
:101B30000C0EDBCF0AF00D0EDBCF0BF00E0EDBCF61
:101B40000CF00F0EDBCF0DF0100EDBCF0EF00CC043
:101B5000E9FF0DC0F3FF0E5055EC5EF00F6E0F5015
:101B6000E56E60EC5AF00F6EF3CF10F0E12A0F50E3
:101B70001010EDE0000EE56E220EE56E0550E56EEC
:101B80000450E56E0350E56EC8EC4DF0050EE126FD
:101B90000350010F0C6E000E04200D6E000E052088
:101BA0000E6E0CC0E9FF0DC0F3FF0E5055EC5EF059
:101BB0000C6E0C50010A11E1020E0326000E0422E5
:101BC000000E052203C0E9FF04C0F3FF055055ECE9
:101BD0005EF0036E0350060A02E0E86A12D1036A5F
:101BE000046A000E045C02E1CA0E035C14E2020EF9
:101BF0000C6EA80E056E800E0D6E0D50E56E0C502D
:101C0000E56E0550E56E2CEC58F0030EE126032A34
:101C1000D8B0042AE6D7020E046E0C0E036E800EB6
:101C2000056E000EE56E040EE56E0550E56E04507F
:101C3000E56E0350E56EC8EC4DF0050EE12602019D
:101C40000C51630A0CE102010D51820A08E1020104
:101C50000E51530A04E102010F51630A02E0E86ADF
:101C6000D0D0000EE56E000EF46E09C0E9FF0AC088
:101C7000F3FF0B5008EC5FF0010E036E020E056ED1
:101C8000A80E046E800E0C6E0C50E56E0550E56ECD
:101C90000450E56E2CEC58F0046E030EE12604505F
:101CA000D8B4A8D0A8C204F0056A0450FF0A03E122
:101CB000055001E19FD0020E056EA90E046E800E44
:101CC0000C6E0C50E56E0550E56E0450E56E2CEC84
:101CD00058F0030EE126A8C204F0056A0450350A44
:101CE00002E1055001E00CD00250E56E0150E56EB6
:101CF0000050E56E2CEC58F0030EE126036ABED7C7
:101D0000065007100810D8B4B9D709C0E9FF0AC0B7
:101D1000F3FF0B50CBEC5DF0046EF3CF05F00450F5
:101D200006240C6E055007200D6EE86A05BEE868B3
:101D300008200E6EA8C2E5FF0CC0E9FF0DC0F3FF3E
:101D40000E5028EC5FF00450010F0C6E000E0520C1
:101D50000D6E0E6A0DBE0E6806500C2607500D2241
:101D600008500E22A9C2E5FF0CC0E9FF0DC0F3FF29
:101D70000E5028EC5FF0020E0426D8B0052A0C6A3B
:101D800005BE0C68065004260750052208500C2298
:101D9000A9C20DF00E6A0E50E56E0D50E56E0C50A6
:101DA000E56E0550E56E0450E56EC8EC4DF0050E8D
:101DB000E12609C0E9FF0AC0F3FF0B50CBEC5DF050
:101DC000046EF3CF05F0A9C20CF00D6A020E0C26CA
:101DD000D8B00D2A0C5004260D50052204C0E5FF92
:101DE00005C0F4FF09C0E9FF0AC0F3FF0B5008EC7F
:101DF0005FF044D70350D880E866D890036A033672
:101E00000350E4CF10F0E4CF0FF0E4CF0EF0E4CFB6
:101E10000DF0E4CF0CF0E4CF0BF0E4CF0AF0E4CF08
:101E200009F0E4CF08F0E4CF07F0E4CF06F0E4CF08
:101E300005F0E4CF04F0E4CF03F0E4CF02F0E4CF08
:101E400001F0E4CF00F0E4CFD9FF1200D9CFE5FFD5
:101E5000E1CFD9FF00C0E5FF01C0E5FF02C0E5FF0B
:101E600003C0E5FF04C0E5FF05C0E5FF06C0E5FFD0
:101E700007C0E5FF08C0E5FF09C0E5FF0AC0E5FFB0
:101E80000BC0E5FF0CC0E5FF0DC0E5FF0EC0E5FF90
:101E90000FC0E5FF10C0E5FF020EDBCF00F0030E20
:101EA000DBCF01F0040EDBCF02F00801F4AD47D028
:101EB000DCEC5CF0036E03500E01551901E133D0E8
:101EC00003C055FE03502FE1DCC803F0DDC804F069
:101ED000DEC805F0DFC806F003500801C86F0450E3
:101EE0000801C96F05500801CA6F06500801CB6F81
:101EF000E0C803F0E1C804F0E2C805F0E3C806F06A
:101F000003500801CC6F04500801CD6F0550080143
:101F1000CE6F06500801CF6F0801F48F000EE56EFA
:101F20006FEC58F0E12A83EC03F0000EE56E76ECDE
:101F30005EF0036EE12A035002E00801F49F1EECFC
:101F40005FF00BEC5EF00B0E046ECC0E036E800E99
:101F5000056E020E076EB40E066E800E086E0850F7
:101F6000E56E0750E56E0650E56E0550E56E0450CF
:101F7000E56E0350E56E33EC31F0036E060EE1269C
:101F80000350D8B407D1B4C203F0046A035002E18D
:101F9000045009E00350060A02E1045001E0D1D7E1
:101FA000C6EC26F0CED7020E046E3C0E036E800EF9
:101FB000056E0B0E076EC80E066E800E086E020EC2
:101FC0000A6EB50E096E800E0B6E020E0D6E970E28
:101FD0000C6E800E0E6E0E50E56E0D50E56E0C50C0
:101FE000E56E0B50E56E0A50E56E0950E56E08503F
:101FF000E56E0750E56E0650E56E0550E56E04503F
:10200000E56E0350E56EC8EC2CF0036E0C0EE12675
:102010000350D8B496D7B5C203F0046A0350010A3E
:1020200002E1045001E06DD03CC205F03DC206F073
:102030003EC207F03FC208F0C8C809F0C9C80AF09C
:10204000CAC80BF0CBC80CF0055009180AE10650BD
:102050000A1807E107500B1804E108500C1801E1B9
:1020600039D00550FF0A09E10650FF0A06E1075082
:10207000FF0A03E10850FF0A2DE00801CC510916C0
:102080000801CD510A160801CE510B160801CF5197
:102090000C160801CC1D0D6E0801CD1D0E6E080139
:1020A000CE1D0F6E0801CF1D106E0D5009120E507F
:1020B0000A120F500B1210500C120550091809E1AA
:1020C00006500A1806E107500B1803E108500C18D7
:1020D00001E037D70B0E066EC80E056E800E076E38
:1020E00002019851E56E02019751E56E0750E56EC9
:1020F0000650E56E0550E56E86EC3AF0050EE126D9
:1021000020D70350110A02E1045001E01AD70B0E48
:10211000046EC80E036E800E056E020E076E3C0E36
:10212000066E800E086E02019851E56E020197510D
:10213000E56E0850E56E0750E56E0650E56E0550F9
:10214000E56E0450E56E0350E56E0EEC21F0036E73
:10215000080EE12603501EE00050011002101AE0A4
:102160000B0E046EC80E036E800E056E000EE56E3B
:10217000040EE56E0550E56E0450E56E0350E56E05
:102180000250E56E0150E56E0050E56E7BEC4AF0C2
:10219000080EE126E4CF10F0E4CF0FF0E4CF0EF00C
:1021A000E4CF0DF0E4CF0CF0E4CF0BF0E4CF0AF075
:1021B000E4CF09F0E4CF08F0E4CF07F0E4CF06F075
:1021C000E4CF05F0E4CF04F0E4CF03F0E4CF02F075
:1021D000E4CF01F0E4CF00F0E4CFD9FF1200D9CF73
:1021E000E5FFE1CFD9FF00C0E5FF01C0E5FF02C078
:1021F000E5FF03C0E5FF04C0E5FF05C0E5FF06C03D
:10220000E5FF07C0E5FF08C0E5FF09C0E5FF0AC01C
:10221000E5FF0BC0E5FF0CC0E5FF0DC0E5FF0EC0FC
:10222000E5FF0FC0E5FF10C0E5FF020EDBCF00F0B9
:10223000030EDBCF01F0040EDBCF02F0036A046A69
:10224000056A066A076A086A0450800F800F02E177
:102250000A0E035CD8B061D1000E0724096E080E87
:1022600008200A6E0A500A6E0950096E800E0B6E25
:102270000B50E56E0A50E56E0950E56EBBEC52F06E
:10228000096E030EE1260950D8A43BD1000E0724A5
:10229000096E080E08200A6E0E0E0926D8B00A2A0A
:1022A00009C0E9FF0AC0EAFFEECF0BF0EECF0CF059
:1022B000EECF0DF0EFCF0EF0000E0E5C08E1000E39
:1022C0000D5C05E1000E0C5C02E13C0E0B5C0DE2C6
:1022D00009C0E9FF0AC0EAFF000EEE6E000EEE6EC6
:1022E000000EEE6E000EEF6E20D009C0E9FF0AC0AE
:1022F000EAFFEECF0BF0EECF0CF0EECF0DF0EFCF0C
:102300000EF0C40E0B26FF0E0C22FF0E0D22FF0E48
:102310000E2209C0E9FF0AC0EAFF0BC0EEFF0CC0A5
:10232000EEFF0DC0EEFF0EC0EFFF000E0524096E9C
:10233000080E06200A6E09500A0F0B6E000E0A20C6
:102340000C6E0BC0E9FF0CC0EAFFEECF0DF0EECF34
:102350000EF0EECF0FF0EFCF10F0000E105C08E1A2
:10236000000E0F5C05E1000E0E5C02E13D0E0D5CFF
:10237000D8B06DD00950120F0D6E000E0A200E6EEF
:102380000DC0E9FF0EC0EAFFEECF0FF0EFCF10F067
:102390000F2AD8B0102A0DC0E9FF0EC0EAFF0FC007
:1023A000EEFF10C0EFFF0BC0E9FF0CC0EAFF2C0EE0
:1023B000EE6E010EEE6E000EEE6E000EEF6E000E73
:1023C000105C02E1050E0F5CD8A061D009C00DF0D1
:1023D0000AC00EF00E500E6E0D500D6E800E0F6E78
:1023E000040E0926D8B00A2A0A500A6E0950096E4E
:1023F000800E106E1050E56E0A50E56E0950E56EC5
:102400000F50E56E0E50E56E0D50E56E0250E56E14
:102410000150E56E0050E56E56EC3BF0090EE126EA
:10242000000E0524096E080E06200A6E0A500A6E78
:102430000950096E800E0D6E0D50E56E0A50E56E66
:102440000950E56E6CEC54F0030EE1265AD00BC037
:10245000E9FF0CC0EAFFEECF09F0EECF0AF0EECFB5
:102460000DF0EFCF0EF0C40E0926FF0E0A22FF0E6C
:102470000D22FF0E0E220BC0E9FF0CC0EAFF09C0BF
:10248000EEFF0AC0EEFF0DC0EEFF0EC0EFFF000E24
:102490000524096E080E06200A6E09500E0F0B6EF9
:1024A000000E0A200C6E0BC0E9FF0CC0EAFFEECF55
:1024B0000BF0EECF0CF0EECF0DF0EFCF0EF0000EE4
:1024C0000E5C08E1000E0D5C05E1010E0C5C02E102
:1024D0002D0E0B5C16E20A500A6E0950096E800E32
:1024E0000B6E0B50E56E0A50E56E0950E56E02501A
:1024F000E56E0150E56E0050E56EEBEC37F0060E30
:10250000E126140E0526D8B0062A140E0726D8B0E8
:10251000082A032AD8B0042A97D6E4CF10F0E4CFD3
:102520000FF0E4CF0EF0E4CF0DF0E4CF0CF0E4CFE9
:102530000BF0E4CF0AF0E4CF09F0E4CF08F0E4CFE9
:1025400007F0E4CF06F0E4CF05F0E4CF04F0E4CFE9
:1025500003F0E4CF02F0E4CF01F0E4CF00F0E4CFE9
:10256000D9FF1200D9CFE5FFE1CFD9FF00C0E5FFC9
:1025700001C0E5FF02C0E5FF03C0E5FF04C0E5FFC1
:1025800005C0E5FF06C0E5FF07C0E5FF08C0E5FFA1
:1025900009C0E5FF0AC0E5FF0BC0E5FF0CC0E5FF81
:1025A0000DC0E5FF0EC0E5FF0FC0E5FF10C0E5FF61
:1025B00011C0E5FF12C0E5FF13C0E5FF14C0E5FF41
:1025C00015C0E5FF16C0E5FF17C0E5FF18C0E5FF21
:1025D00019C0E5FF1AC0E5FF1BC0E5FF020EDBCF07
:1025E00000F0030EDBCF01F0040EDBCF02F0050E8E
:1025F000DBCF03F0060EDBCF04F0070EDBCF05F0D8
:10260000080EDBCF06F0090EDBCF07F00A0EDBCF9A
:1026100008F0FF0E096E000E0B6E600E0A6E800E43
:102620000C6E0D6A0050020F0E6E000E01200F6E30
:10263000000E0220106E0EC0E9FF0FC0F3FF105015
:10264000CBEC5DF00E6EF3CF0FF00AC010F00BC0B4
:1026500011F00CC012F0136A13C014F0156A000ECA
:10266000155C02E10A0E145CD8B0B4D010500C0F07
:10267000146E000E1120156E000E1220166E14C07E
:10268000E9FF15C0F3FF1650CBEC5DF0146EF3CFED
:1026900015F014500E1803E115500F1801E090D0FA
:1026A00010500A0F146E000E1120156E000E12202D
:1026B000166E14C0E9FF15C0F3FF1650CBEC5DF0A9
:1026C000146EF3CF15F000C0E9FF01C0F3FF025014
:1026D000CBEC5DF0166EF3CF17F01450161803E133
:1026E0001550171801E06AD010C0E9FF11C0F3FFC0
:1026F000125040EC5DF0146EF3CF15F0F4CF16F0ED
:10270000E9CF17F003C0E9FF04C0F3FF055040EC28
:102710005DF0186EF3CF19F0F4CF1AF0E9CF1BF08B
:10272000145018180AE11550191807E116501A1814
:1027300004E117501B1801E13FD006C0E9FF07C0B4
:10274000F3FF085040EC5DF0146EF3CF15F0F4CFBA
:1027500016F0E9CF17F01450FF0A09E11550FF0AEF
:1027600006E11650FF0A03E11750FF0A25E00801B1
:10277000CC1D186E0801CD1D196E0801CE1D1A6EF4
:102780000801CF1D1B6E0801C85118120801C9515C
:1027900019120801CA511A120801CB511B12145008
:1027A000181809E11550191806E116501A1803E116
:1027B00017501B1801E002D00D5054D013C009F07F
:1027C0000E0E1026000E1122000E1222132A13C024
:1027D0000DF042D709C006F0076A0650FF0A03E170
:1027E000075001E13ED009500E0DF3CF06F0076A05
:1027F000600E0626000E072207500B6E06500A6E6A
:10280000800E0C6E000EE56E0A0EE56E0550E56E4C
:102810000450E56E0350E56E0C50E56E0B50E56E0E
:102820000A50E56E7BEC4AF0080EE1260A0E0A26F5
:10283000000E0B22000E0C2200C0E9FF01C0F3FFC6
:102840000250CBEC5DF0006EF3CF01F000C0E5FF6D
:1028500001C0F4FF0AC0E9FF0BC0F3FF0C5008EC05
:102860005FF00950E4CF1BF0E4CF1AF0E4CF19F089
:10287000E4CF18F0E4CF17F0E4CF16F0E4CF15F072
:10288000E4CF14F0E4CF13F0E4CF12F0E4CF11F072
:10289000E4CF10F0E4CF0FF0E4CF0EF0E4CF0DF072
:1028A000E4CF0CF0E4CF0BF0E4CF0AF0E4CF09F072
:1028B000E4CF08F0E4CF07F0E4CF06F0E4CF05F072
:1028C000E4CF04F0E4CF03F0E4CF02F0E4CF01F072
:1028D000E4CF00F0E4CFD9FF1200D9CFE5FFE1CF7C
:1028E000D9FF00C0E5FF01C0E5FF02C0E5FF03C05E
:1028F000E5FF04C0E5FF05C0E5FF06C0E5FF07C032
:10290000E5FF08C0E5FF020EDBCF00F0030EDBCFD2
:1029100001F0010EE56E36EC56F0E12A010EE56E8F
:1029200036EC56F0E12A060EE56E36EC56F0E12A5A
:10293000000EE56E36EC56F0E12A120EE56E36EC2E
:1029400056F0E12A230EE56E36EC56F0E12A340EFD
:10295000E56E36EC56F0E12A560EE56E36EC56F092
:10296000E12A000EE56E36EC56F0E12A000EE56E27
:1029700036EC56F0E12A0B011EA902D0026A02D001
:10298000800E026E0250E56E36EC56F0E12A000E23
:10299000E56E36EC56F0E12A00C002F0036A046AE4
:1029A0000250030A03E1035001E1042A045017E036
:1029B000015015E00B0E066E2B0E056E800E076E95
:1029C000000EE56E040EE56E0750E56E0650E56EEE
:1029D0000550E56EF9EC4BF0050EE12614D0000E23
:1029E000E56E36EC56F0E12A000EE56E36EC56F058
:1029F000E12A000EE56E36EC56F0E12A000EE56E97
:102A000036EC56F0E12A0C0E056E000EE56E36EC43
:102A100056F0E12A05060550F8E1080E076EF50E9E
:102A2000066E800E086E000EE56E060EE56E08500E
:102A3000E56E0750E56E0650E56EF9EC4BF0050EBD
:102A4000E126CA0E056E000EE56E36EC56F0E12A60
:102A5000052EF9D7630EE56E36EC56F0E12A820EAC
:102A6000E56E36EC56F0E12A530EE56E36EC56F084
:102A7000E12A630EE56E36EC56F0E12A350EE56E7E
:102A800036EC56F0E12A010EE56E36EC56F0E12AFE
:102A90000050E56E36EC56F0E12A006A0250010A59
:102AA00003E1035001E1002A005002E00B011E95F2
:102AB000045024E0015022E1360EE56E36EC56F06B
:102AC000E12A040EE56E36EC56F0E12A0B012A519C
:102AD000E56E36EC56F0E12A0B012951E56E36EC35
:102AE00056F0E12A0B012851E56E36EC56F0E12A4A
:102AF0000B012751E56E36EC56F0E12A370EE56EF4
:102B000036EC56F0E12A040EE56E36EC56F0E12A7A
:102B1000010EE56E36EC56F0E12A030EE56E36EC5A
:102B200056F0E12A060EE56E36EC56F0E12A0C0E60
:102B3000E56E36EC56F0E12A045002E001500BE05D
:102B4000005027E00B012B510B012C110B012D1113
:102B50000B012E111EE0320EE56E36EC56F0E12A26
:102B6000040EE56E36EC56F0E12A0B0E026E2B0ECB
:102B7000006E800E036E000EE56E040EE56E0350CF
:102B8000E56E0250E56E0050E56EF9EC4BF0050E77
:102B9000E126FF0EE56E36EC56F0E12A010E020149
:102BA000A05D03E12C0E02019F5D06E2000EE56EC2
:102BB00036EC56F0E12AF2D70801C8510201206F25
:102BC0000801C9510201216F0801CA510201226F97
:102BD0000801CB510201236F015008E10801C86BC5
:102BE0000801C96B0801CA6B0801CB6B83EC22F0AA
:102BF000020120510801C86F020121510801C96F6B
:102C0000020122510801CA6F020123510801CB6F52
:102C1000E4CF08F0E4CF07F0E4CF06F0E4CF05F00E
:102C2000E4CF04F0E4CF03F0E4CF02F0E4CF01F00E
:102C3000E4CF00F0E4CFD9FF1200D9CFE5FFE1CF18
:102C4000D9FF00C0E5FF01C0E5FF02C0E5FF03C0FA
:102C5000E5FF04C0E5FF05C0E5FF06C0E5FF07C0CE
:102C6000E5FF020EDBCF81F2030EDBCF82F2040E12
:102C7000DBCF83F2050EDBCF84F2060EDBCF00F054
:102C8000070EDBCF01F0026A036A020182AF13D0A4
:102C9000010E026EE3CE04F0056A0450076E066A68
:102CA000E2CE04F0056A045006100201816F05505F
:102CB00007100201826F020184AF13D0010E036E70
:102CC0007BCF04F0056A0450076E066A7ACF04F0E1
:102CD000056A045006100201836F055007100201B7
:102CE000846F000E015C02E1020E005CD8B07CD063
:102CF0007BCF04F0056A0450076E066A7ACF04F0B1
:102D0000056A045006120550071206500201856F2D
:102D100007500201866FE3CE04F0056A0450076E87
:102D2000066AE2CE04F0056A045006120550071246
:102D300006500201876F07500201886F020183511C
:102D4000046E056A04507A6E02018451046E056AAD
:102D5000056A04507B6E02018151046E056A0450BD
:102D60000E01E26F02018251046E056A056A045089
:102D70000E01E36F00C004F001C005F004C006F0CE
:102D800005C007F0FF0E0426D8A005060650071060
:102D900009E032EC5FF0066E0650E56E14EC5FF071
:102DA000E12AECD703500DE102018551046E056A5A
:102DB00004507A6E02018651046E056A056A045059
:102DC0007B6E0250D8A4D5D002018751046E056AEB
:102DD00004500E01E26F02018851046E056A056A13
:102DE00004500E01E36FC5D0025023E000500201F1
:102DF0008125026E015002018221046E02500201FF
:102E0000876F04500201886F87C2E8FF88C2E8FF1D
:102E10000250056E066A05500E01E26F87C2E8FF98
:102E200088C2E8FF0450026E046A046A02500E0170
:102E3000E36F02018351FF0F026EFF0E0201842136
:102E4000046E0250002604500122D2BAFED70201BD
:102E50008351026E046A02500E01F06F0201845128
:102E6000026E046A046A02500E01F16F0201815180
:102E7000026E046A02500E01F46F02018251026E6A
:102E8000046A046A02500E01F56F83C202F084C224
:102E900004F0056A066A000E065C08E1000E055C97
:102EA00005E11A0E045C02E10A0E025C026A0236B7
:102EB00002501EE100C004F001C005F0066A076A76
:102EC000000E075C08E1000E065C05E11A0E055CC9
:102ED00002E10A0E045C0CE3F60E0426E50E052260
:102EE000FF0E0622FF0E07220450006E0550016EF1
:102EF0000050046E056A04500E01F26F0150046E1A
:102F0000056A056A04500E01F36FD298D28AD2BACC
:102F1000FED703502EE0002AD8B0012A02501EE14D
:102F200000C002F001C003F0046A056A000E055CEF
:102F300008E1000E045C05E11A0E035C02E10A0ED2
:102F4000025C0CE3F60E0226E50E0322FF0E0422BD
:102F5000FF0E05220250006E0350016E0050026EFB
:102F6000036A02507A6E0150006E016A016A0050D5
:102F70007B6EE4CF07F0E4CF06F0E4CF05F0E4CFBA
:102F800004F0E4CF03F0E4CF02F0E4CF01F0E4CFAB
:102F900000F0E4CFD9FF1200D9CFE5FFE1CFD9FF90
:102FA00000C0E5FF01C0E5FF02C0E5FF03C0E5FF8B
:102FB00004C0E5FF05C0E5FF06C0E5FF07C0E5FF6B
:102FC00008C0E5FF020EDBCF00F0030EDBCF01F0FF
:102FD000040EDBCF02F0050EDBCF93F2060EDBCF43
:102FE00094F20201306B0201316B0201326B02017B
:102FF000336B0201306B0201316B0201326B020153
:10300000336B0201306B0201316B0201326B020142
:10301000336B0201306B0201316B0201326B020132
:10302000336B0201306B0201316B0201326B020122
:10303000336B0201306B0201316B0201306B020114
:10304000316B0201306B0201316B020130910201E0
:10305000309302013095020130970201309902014C
:10306000309B0201309D0201309F0201319102012B
:103070003193020131950201319702013199020128
:10308000319B0201319D0201319F0201326B02012D
:10309000336B0201326B0201336B0201326B0201AE
:1030A000336B020132910201329302013295020127
:1030B0003297020132990201329B0201329D0201D4
:1030C000329F0201339102013393020133950201D1
:1030D0003397020133990201339B0201339D0201B0
:1030E000339F0201309102013093020130950201B9
:1030F0003097020130990201309B0201309D02019C
:10310000309F020131910201319302013195020198
:103110003197020131990201319B0201319D020177
:10312000319F020132910201329302013295020174
:103130003297020132990201329B0201329D020153
:10314000329F020133910201339302013395020150
:103150003397020133990201339B0201339D02012F
:10316000339FD89002019431046E02019331036EB3
:1031700003C005F004C006F0FF0E0326D8A0040625
:10318000055006102BE000C0E9FF01C0F3FF02501C
:10319000CBEC5DF0056EF3CF06F0020E0026000EBC
:1031A0000122000E0222076A086A02013051052638
:1031B000020131510622020132510722020133512C
:1031C000082205500201306F06500201316F07508E
:1031D0000201326F08500201336FCAD7020193A176
:1031E00023D000C0E9FF01C0F3FF025055EC5EF0B0
:1031F000006E016A026A036A020130510026020170
:1032000031510122020132510222020133510322C3
:1032100000500201306F01500201316F0250020173
:10322000326F03500201336F30C200F031C201F03F
:10323000026A036A32C204F033C205F0066A076A02
:103240000450002605500122065002220750032296
:1032500000500201306F01500201316F0250020133
:10326000326F03500201336F0201325102013025E7
:10327000006E0201335102013121016E0050020142
:10328000306F01500201316F0201301D006E0201EA
:10329000311D016E01C0F3FF0050E4CF08F0E4CF10
:1032A00007F0E4CF06F0E4CF05F0E4CF04F0E4CF7C
:1032B00003F0E4CF02F0E4CF01F0E4CF00F0E4CF7C
:1032C000D9FF1200D9CFE5FFE1CFD9FF00C0E5FF5C
:1032D00001C0E5FF02C0E5FF03C0E5FF04C0E5FF54
:1032E00005C0E5FF06C0E5FF07C0E5FF08C0E5FF34
:1032F00009C0E5FF0AC0E5FF0BC0E5FF0CC0E5FF14
:103300000DC0E5FF0EC0E5FF0FC0E5FF10C0E5FFF3
:1033100011C0E5FF020EDBCF00F0030EDBCF01F0A2
:10332000040EDBCF02F0050EDBCF03F0060EDBCF81
:1033300004F0070EDBCF05F0020E076EAA0E066E34
:10334000800E086E090E0A6EC80E096E800E0B6E96
:10335000010E0D6E000E0C6E800E0E6E010E106EC4
:10336000FE0E0F6E800E116E0550E56E0450E56E78
:103370000350E56E1150E56E1050E56E0F50E56E8E
:103380000E50E56E0D50E56E0C50E56E0B50E56E7F
:103390000A50E56E0950E56E0850E56E0750E56E7F
:1033A0000650E56E54EC0DF00F0EE1260BEC5EF0CE
:1033B000AAC203F0046A0350020A02E1045006E0C4
:1033C0000350050A02E1045027E0DED0000EE56E4E
:1033D0009B0EE56E160EE56E000EE56E6AEC50F083
:1033E000040EE126090E046EC80E036E800E056EF3
:1033F0000201AA51E56E0250E56E0150E56E0050E3
:10340000E56E0550E56E0450E56E0350E56E81EC07
:1034100009F0070EE126C4D0000EE56E9B0EE56EA6
:10342000220EE56E000EE56E6AEC50F0040EE12609
:10343000020E046E100E036E800E056E010E076EF6
:10344000000E066E800E086E0101FF51E56E01014F
:10345000FE51E56E0850E56E0750E56E0650E56ECC
:103460000550E56E0450E56E0350E56E3BEC34F01C
:10347000080EE126036A046A090E066EE40E056E64
:10348000800E076E020E096E670E086E800E0A6EC1
:103490000A50E56E0950E56E0850E56E0750E56E7E
:1034A0000650E56E0550E56EDDEC40F0056E060E4B
:1034B000E126055023E067C205F068C206F069C244
:1034C00007F00550120F086E000E0620096E000E60
:1034D00007200A6E08C0E9FF09C0F3FF0A50CBECD1
:1034E0005DF0036EF3CF04F00750E56E0650E56E15
:1034F0000550E56E6CEC54F0030EE126090E066EE5
:10350000D80E056E800E076E090E096EE40E086E69
:10351000800E0A6E0450E56E0350E56E02011351F1
:10352000E56E02011251E56E02011151E56E0201D4
:103530001051E56E0A50E56E0950E56E0850E56ED3
:103540000750E56E0650E56E0550E56E6CEC2AF00E
:103550000C0EE126090E046EC80E036E800E056E79
:103560000201AA51E56E0250E56E0150E56E005071
:10357000E56E0550E56E0450E56E0350E56E81EC96
:1035800009F0070EE1260CD0000EE56E9B0EE56EED
:103590002C0EE56E000EE56E6AEC50F0040EE1268E
:1035A000E4CF11F0E4CF10F0E4CF0FF0E4CF0EF051
:1035B000E4CF0DF0E4CF0CF0E4CF0BF0E4CF0AF051
:1035C000E4CF09F0E4CF08F0E4CF07F0E4CF06F051
:1035D000E4CF05F0E4CF04F0E4CF03F0E4CF02F051
:1035E000E4CF01F0E4CF00F0E4CFD9FF1200D9CF4F
:1035F000E5FFE1CFD9FF00C0E5FF01C0E5FF02C054
:10360000E5FF03C0E5FF04C0E5FF05C0E5FF06C018
:10361000E5FF07C0E5FF08C0E5FF09C0E5FF020EB2
:10362000DBCF00F0030EDBCF01F0040EDBCF02F0A6
:10363000050EDBCF03F0060EDBCF04F002C0E9FF7E
:1036400003C0F3FF045055EC5EF0056E066A0B0EE6
:10365000086E500E076E800E096E0950E56E085018
:10366000E56E0750E56E0650E56E0550E56E6FECB1
:1036700049F0050EE1260250010F056E000E0320F1
:10368000066E000E0420076E05C0E9FF06C0F3FFBA
:10369000075055EC5EF0056E066A0B0E086E5A0E6A
:1036A000076E800E096E0950E56E0850E56E0750F2
:1036B000E56E0650E56E0550E56E6FEC49F0050EBF
:1036C000E1260250020F056E000E0320066E000E6A
:1036D0000420076E05C0E9FF06C0F3FF075055EC54
:1036E0005EF0056E066A0B0E086E640E076E800EA5
:1036F000096E0950E56E0850E56E0750E56E0650FC
:10370000E56E0550E56E6FEC49F0050EE1260250BE
:10371000030F056E000E0320066E000E0420076ED8
:1037200005C0E9FF06C0F3FF075055EC5EF0056EDB
:10373000066A0B0E086E6E0E076E800E096E09503B
:10374000E56E0850E56E0750E56E0650E56E0550D3
:10375000E56E6FEC49F0050EE1260250040F056E90
:10376000000E0320066E000E0420076E05C0E9FF60
:1037700006C0F3FF075055EC5EF0056E066A0B0EAF
:10378000086E780E076E800E096E0950E56E0850BF
:10379000E56E0750E56E0650E56E0550E56E6FEC80
:1037A00049F0050EE126050E0226000E0322000E4A
:1037B000042202C0E9FF03C0F3FF045055EC5EF0A1
:1037C000026E036A0B0E056E820E046E800E066E8C
:1037D0000650E56E0550E56E0450E56E0350E56E4B
:1037E0000250E56E6FEC49F0050EE1260B0E026EFD
:1037F000500E016E800E036E0350E56E0250E56EB2
:103800000150E56E0050E56E6AEC50F0040EE126C2
:10381000040E0024016E0B0E036E5A0E026E800E13
:10382000046E0450E56E0350E56E0250E56E0150E3
:10383000E56E6AEC50F0040EE126080E0024016EDD
:103840000B0E036E640E026E800E046E0450E56E65
:103850000350E56E0250E56E0150E56E6AEC50F0E3
:10386000040EE1260C0E0024016E0B0E036E6E0E8C
:10387000026E800E046E0450E56E0350E56E025039
:10388000E56E0150E56E6AEC50F0040EE126100E74
:103890000024016E0B0E036E780E026E800E046E15
:1038A0000450E56E0350E56E0250E56E0150E56E82
:1038B0006AEC50F0040EE126140E00260B0E026E88
:1038C000820E016E800E036E0350E56E0250E56EAF
:1038D0000150E56E0050E56E6AEC50F0040EE126F2
:1038E000E4CF09F0E4CF08F0E4CF07F0E4CF06F02E
:1038F000E4CF05F0E4CF04F0E4CF03F0E4CF02F02E
:10390000E4CF01F0E4CF00F0E4CFD9FF1200D9CF2B
:10391000E5FFE1CFD9FF00C0E5FF01C0E5FF02C030
:10392000E5FF03C0E5FF04C0E5FF05C0E5FF06C0F5
:10393000E5FF07C0E5FF08C0E5FF09C0E5FF0AC0D5
:10394000E5FF0BC0E5FF0CC0E5FF0DC0E5FF020E73
:10395000DBCF00F0030EDBCF01F0040EDBCF02F073
:10396000050EDBCF03F0060EDBCF04F0070EDBCF36
:1039700005F0066A076A0201286B0201296B020141
:103980002A6B02012B6B00C0E9FF01C0F3FF02505C
:1039900055EC5EF0086E002AD8B0012AD8B0022A91
:1039A00008C009F00850D8B4D0D007C008F00A6A9F
:1039B000000E0A5C02E1040E085CD8B0C6D0D00E3E
:1039C000092606500CE109C008F00A6A000E0A5CDC
:1039D00002E10A0E085CD8A09DD0E86A07D106C0B3
:1039E00008F00A6A0850030A02E10A5001E044D0D4
:1039F0000950FE0A02E0E86AF9D0000E02012B5DD0
:103A00000BE1020E02012A5D07E1050E0201295DAC
:103A100003E1060E0201285D02E3E86AE7D007C071
:103A200008F0072A0A6A0B6A0350082604500A2283
:103A300005500B2202012A51640DF3CF0CF0020154
:103A400029510A0DF3CF0DF00D500C26020128511B
:103A50000C260CC0E5FF08C0E9FF0AC0F3FF0B50BD
:103A600028EC5FF0066A0201286B0201296B020153
:103A70002A6B02012B6B87D70950FE0A01E03FD069
:103A8000000E02012B5D0BE1020E02012A5D07E12F
:103A9000050E0201295D03E1060E0201285D02E325
:103AA000E86AA4D007C008F0072A0A6A0B6A035024
:103AB000082604500A2205500B2202012A51640DE7
:103AC000F3CF0CF0020129510A0DF3CF0DF00D5088
:103AD0000C26020128510C260CC0E5FF08C0E9FFA6
:103AE0000AC0F3FF0B5028EC5FF0066A0201286B56
:103AF0000201296B02012A6B02012B6B44D709C01A
:103B000008F00A6A000E0A5C02E10A0E085C02E391
:103B1000E86A6CD0062A02012A510C6E0201295172
:103B20000B6E020128510A6E086A08500201286FC4
:103B30000A500201296F0B5002012A6F0C5002013A
:103B40002B6F09500201286F1ED709501EE009C0D3
:103B500000F0016A00502F0A02E1015016E0005007
:103B60000D0A02E1015011E000500A0A02E1015081
:103B70000CE00050200A02E1015007E00050090A61
:103B800002E1015002E0E86A31D0000E02012B5D33
:103B90000BE1020E02012A5D07E1050E0201295D1B
:103BA00003E1060E0201285D02E3E86A1FD0030E5E
:103BB0000326000E0422000E052202012A51640D84
:103BC000F3CF00F0020129510A0DF3CF01F00150AB
:103BD000002602012851002600C0E5FF03C0E9FFCE
:103BE00004C0F3FF055028EC5FF0010EE4CF0DF0A8
:103BF000E4CF0CF0E4CF0BF0E4CF0AF0E4CF09F00F
:103C0000E4CF08F0E4CF07F0E4CF06F0E4CF05F00E
:103C1000E4CF04F0E4CF03F0E4CF02F0E4CF01F00E
:103C2000E4CF00F0E4CFD9FF1200D9CFE5FFE1CF18
:103C3000D9FF00C0E5FF01C0E5FF02C0E5FF03C0FA
:103C4000E5FF04C0E5FF05C0E5FF06C0E5FF07C0CE
:103C5000E5FF020EDBCF00F0030EDBCF01F0040E18
:103C6000DBCF02F0050EDBCF03F0060EDBCF04F056
:103C7000070EDBCF05F003C0E9FF04C0F3FF0550DA
:103C800055EC5EF0066E0650E56E14EC57F0066ECD
:103C9000F3CF07F0E12A06500710EDE0000EE56EC5
:103CA000010EE56E0250E56E0150E56E0050E56EC6
:103CB000F9EC4BF0050EE1260050010F036E000EEB
:103CC0000120046E000E0220056E000EE56E010E4E
:103CD000E56E0550E56E0450E56E0350E56EF9ECB7
:103CE0004BF0050EE1260050020F036E000E01207E
:103CF000046E000E0220056E000EE56E010EE56EEC
:103D00000550E56E0450E56E0350E56EF9EC4BF09E
:103D1000050EE1260050030F036E000E0120046E15
:103D2000000E0220056E000EE56E010EE56E0550D8
:103D3000E56E0450E56E0350E56EF9EC4BF0050EB0
:103D4000E1260050040F036E000E0120046E000EE9
:103D50000220056E000EE56E040EE56E0550E56E60
:103D60000450E56E0350E56EF9EC4BF0050EE126CC
:103D70000050080F036E000E0120046E000E02209A
:103D8000056E000EE56E020EE56E0550E56E045000
:103D9000E56E0350E56EF9EC4BF0050EE1260050A0
:103DA0000A0F036E000E0120046E000E0220056E45
:103DB000000EE56E020EE56E0550E56E0450E56EF0
:103DC0000350E56EF9EC4BF0050EE12600500C0FA8
:103DD000036E000E0120046E000E0220056E000E20
:103DE000E56E040EE56E0550E56E0450E56E035079
:103DF000E56EF9EC4BF0050EE1260050100F036E56
:103E0000000E0120046E000E0220056E000EE56E0D
:103E1000040EE56E0550E56E0450E56E0350E56E48
:103E2000F9EC4BF0050EE1260050140F036E000E66
:103E30000120046E000E0220056E000EE56E040ED9
:103E4000E56E0550E56E0450E56E0350E56EF9EC45
:103E50004BF0050EE126080E046EC80E036E800EB0
:103E6000056E000EE56E040EE56E0550E56E04501D
:103E7000E56E0350E56EF9EC4BF0050EE1261C0EE5
:103E80000026000E0122000E0222000EE56E060E34
:103E9000E56E0250E56E0150E56E0050E56EF9ECFE
:103EA0004BF0050EE126CA0E006E016A000EE56EAB
:103EB00036EC56F0E12AFF0E0026D8A0010600508D
:103EC0000110F4E1630EE56E36EC56F0E12A820E45
:103ED000E56E36EC56F0E12A530EE56E36EC56F000
:103EE000E12A630EE56E36EC56F0E12A350EE56EFA
:103EF00036EC56F0E12A010EE56E36EC56F0E12A7A
:103F0000E4CF07F0E4CF06F0E4CF05F0E4CF04F00F
:103F1000E4CF03F0E4CF02F0E4CF01F0E4CF00F00F
:103F2000E4CFD9FF1200D9CFE5FFE1CFD9FF00C020
:103F3000E5FF01C0E5FF02C0E5FF03C0E5FF04C0E7
:103F4000E5FF05C0E5FF06C0E5FF07C0E5FF08C0C7
:103F5000E5FF09C0E5FF0AC0E5FF0BC0E5FF0CC0A7
:103F6000E5FF0DC0E5FF0EC0E5FF0FC0E5FF10C087
:103F7000E5FF11C0E5FF12C0E5FF020EDBCF00F048
:103F8000030EDBCF01F0040EDBCF02F0050EDBCF1A
:103F900003F0060EDBCF04F0070EDBCF05F0080EB2
:103FA000DBCF06F0090EDBCF07F00A0EDBCF08F0FF
:103FB0000B0EDBCF09F00C0EDBCF0AF00D0EDBCFC2
:103FC0000BF00E0EDBCF0CF00F0EDBCF0DF0100E52
:103FD000DBCF0EF0110EDBCF0FF00050010F106E93
:103FE000000E0120116E000E0220126E010EE56E11
:103FF00010C0E9FF11C0F3FF125028EC5FF0005031
:10400000020F106E000E0120116E000E0220126EC3
:10401000060EE56E10C0E9FF11C0F3FF125028EC48
:104020005FF00050030F106E000E0120116E000EA5
:104030000220126E010EE56E10C0E9FF11C0F3FF01
:10404000125028EC5FF00050040F106E000E01209B
:10405000116E000E0220126E03C0E5FF04C0F4FFD3
:1040600005C0F6FF06C0F7FF10C0E9FF11C0F3FF5F
:10407000125086EC5EF00050080F036E000E012017
:10408000046E000E0220056E000EE56E000EF46E4A
:1040900003C0E9FF04C0F3FF055008EC5FF00050D7
:1040A0000A0F036E000E0120046E000E0220056E42
:1040B000000EE56E000EF46E03C0E9FF04C0F3FFCE
:1040C000055008EC5FF000500C0F036E000E01204D
:1040D000046E000E0220056E000EE56E040EE56E05
:1040E0000950E56E0850E56E0750E56E0550E56E27
:1040F0000450E56E0350E56E7BEC4AF0080EE126B5
:104100000050100F036E000E0120046E000E0220FE
:10411000056E000EE56E040EE56E0C50E56E0B505C
:10412000E56E0A50E56E0550E56E0450E56E0350ED
:10413000E56E7BEC4AF0080EE1260050140F036E8A
:10414000000E0120046E000E0220056E000EE56ECA
:10415000040EE56E000EE56E0450E56E0350E56E4C
:10416000D5EC50F0050EE1260050180F036E000E3E
:104170000120046E000E0220056E000EE56E040E96
:10418000E56E2A0EE56E0450E56E0350E56ED5EC43
:1041900050F0050EE1261C0E0026000E0122000E36
:1041A0000222000EE56E060EE56E0F50E56E0E5013
:1041B000E56E0D50E56E0250E56E0150E56E005063
:1041C000E56E7BEC4AF0080EE126E4CF12F0E4CF76
:1041D00011F0E4CF10F0E4CF0FF0E4CF0EF0E4CF15
:1041E0000DF0E4CF0CF0E4CF0BF0E4CF0AF0E4CF15
:1041F00009F0E4CF08F0E4CF07F0E4CF06F0E4CF15
:1042000005F0E4CF04F0E4CF03F0E4CF02F0E4CF14
:1042100001F0E4CF00F0E4CFD9FF1200D9CFE5FFE1
:10422000E1CFD9FF00C0E5FF01C0E5FF02C0E5FF17
:1042300003C0E5FF04C0E5FF05C0E5FF06C0E5FFDC
:1042400007C0E5FF08C0E5FF09C0E5FF0AC0E5FFBC
:104250000BC0E5FF020EDBCF00F0030EDBCF01F059
:10426000040EDBCF02F0050EDBCF03F0060EDBCF32
:1042700004F0070EDBCF05F0080EDBCF06F0090EC9
:10428000DBCF07F00201A36B0201A46B0B0E096EDA
:10429000E20E086E800E0A6E000EE56E080EE56EE8
:1042A0000A50E56E0950E56E0850E56EACEC4EF034
:1042B000050EE1260B01E351E56E0B01E251E56EBF
:1042C000A9EC5BF0086EF3CF09F0020EE12608506E
:1042D0000B01E26F09500B01E36F0B01E551E56E35
:1042E0000B01E451E56EA9EC5BF0086EF3CF09F029
:1042F000020EE12608500B01E46F09500B01E56F37
:104300000B01E751E56E0B01E651E56EA9EC5BF0A0
:10431000086EF3CF09F0020EE126F80E0826D8A0A9
:10432000090608500B01E66F09500B01E76F0B01FE
:10433000E8510B01E911D8B496D000C0E9FF01C0E3
:10434000F3FF025040EC5DF0086EF3CF09F0F4CFBC
:104350000AF0E9CF0BF008500B01446F09500B0134
:10436000456F0A500B01466F0B500B01476F03C09E
:10437000E9FF04C0F3FF055040EC5DF0086EF3CF99
:1043800009F0F4CF0AF0E9CF0BF008500B01486FA9
:1043900009500B01496F0A500B014A6F0B500B017A
:1043A0004B6F0B014C6B110E0B014D6F06500B0147
:1043B0004E6F07500B014F6F0750E56E0650E56ECC
:1043C000A9EC5BF0086EF3CF09F0020EE12608506D
:1043D0000B014E6F09500B014F6F0B0E096E440E0F
:1043E000086E800E0A6E000EE56E0C0EE56E0A5029
:1043F000E56E0950E56E0850E56ECCEC17F0086EDE
:10440000F3CF09F0050EE126081E091E085002012F
:10441000486F09500201496F000EE56E000EE56E0F
:1044200028EC5BF0020EE1260750E56E0650E56EC3
:1044300081EC0BF0066EF3CF07F0020EE12606507A
:1044400002014A6F075002014B6F020148510201FD
:104450004A1905E10201495102014B1904E081ECBE
:1044600056F0E86A35D00B0E076EE20E066E800E2F
:10447000086E0550E56E0450E56E0350E56E02507F
:10448000E56E0150E56E0050E56E0850E56E075090
:10449000E56E0650E56EB2EC12F0006E090EE126F4
:1044A00000C001F0026A0150FF0A02E1025001E07F
:1044B00004D081EC56F0E86A0BD000C05BFEE6CB7E
:1044C000A3F2E7CBA4F20201B6810201B693010E7A
:1044D000E4CF0BF0E4CF0AF0E4CF09F0E4CF08F02A
:1044E000E4CF07F0E4CF06F0E4CF05F0E4CF04F02A
:1044F000E4CF03F0E4CF02F0E4CF01F0E4CF00F02A
:10450000E4CFD9FF1200D9CFE5FFE1CFD9FF00C03A
:10451000E5FF01C0E5FF02C0E5FF03C0E5FF04C001
:10452000E5FF05C0E5FF06C0E5FF07C0E5FF08C0E1
:10453000E5FF0201B7510E0DF3CF00F0016A600EE6
:104540000026000E01220150016E0050006E800E08
:10455000026E02019F51080F036E000E0201A0219E
:10456000046E00500C0F056E000E0120066E000E4A
:104570000220076E05C0E9FF06C0F3FF0750CBEC31
:104580005DF0056EF3CF06F00650E56E0550E56E62
:10459000A9EC5BF0056EF3CF06F0020EE1260550A4
:1045A0000B01DA6F06500B01DB6F00500A0F056E2E
:1045B000000E0120066E000E0220076E05C0E9FF06
:1045C00006C0F3FF0750CBEC5DF0056EF3CF06F0AD
:1045D0000650E56E0550E56EA9EC5BF0056EF3CF75
:1045E00006F0020EE12605500B01DC6F06500B01B0
:1045F000DD6F0450E56E0350E56EA9EC5BF0056ECF
:10460000F3CF06F0020EE12605500B01DE6F0650D7
:104610000B01DF6F0B01E06B0B01E16B0801C8516F
:104620000B01386F0801C9510B01396F0801CA51DC
:104630000B013A6F0801CB510B013B6F00C0E9FF42
:1046400001C0F3FF025040EC5DF0056EF3CF06F0C1
:10465000F4CF07F0E9CF08F005500B013C6F06508E
:104660000B013D6F07500B013E6F08500B013F6F70
:104670000B01406B110E0B01416F03500B01426F98
:1046800004500B01436F0450E56E0350E56EA9EC36
:104690005BF0056EF3CF06F0020EE12605500B012C
:1046A000426F06500B01436F0B0E066E380E056EFF
:1046B000800E076E000EE56E0C0EE56E0750E56E7F
:1046C0000650E56E0550E56ECCEC17F0056EF3CFA5
:1046D00006F0050EE126051E061E05500B01E06FD3
:1046E00006500B01E16F1A0EE56E190EE56EB1EC86
:1046F00058F0020EE1260450E56E0350E56E110EEF
:10470000E56E0250E56E0150E56E0050E56E32EC4C
:1047100035F0060EE1260B0E016EDA0E006E800EED
:10472000026E000EE56E080EE56E0250E56E015059
:10473000E56E0050E56EEBEC55F0050EE1261A0E25
:10474000E56E2D0EE56EF3EC58F0006EF3CF01F040
:10475000020EE1260450E56E0350E56E81EC0BF08D
:104760000201A16FF3CFA2F2020EE1260150E56E25
:104770000050E56EF3EC58F0020EE1261A0EE56EDD
:10478000330EE56EB1EC58F0020EE126020E016E1A
:10479000A10E006E800E026E000EE56E020EE56E3A
:1047A0000250E56E0150E56E0050E56EEBEC55F001
:1047B000050EE12695EC5AF002019F6B0201A06BF9
:1047C000FF0E0E015A6FE4CF08F0E4CF07F0E4CFFC
:1047D00006F0E4CF05F0E4CF04F0E4CF03F0E4CF3B
:1047E00002F0E4CF01F0E4CF00F0E4CFD9FF1200F3
:1047F000D9CFE5FFE1CFD9FF00C0E5FF01C0E5FF5C
:1048000002C0E5FF03C0E5FF04C0E5FF05C0E5FF0A
:1048100006C0E5FF07C0E5FF08C0E5FF09C0E5FFEA
:104820000AC0E5FF0BC0E5FF0CC0E5FF0DC0E5FFCA
:104830000EC0E5FF0FC0E5FF10C0E5FF11C0E5FFAA
:1048400012C0E5FF13C0E5FF14C0E5FF15C0E5FF8A
:1048500016C0E5FF17C0E5FF18C0E5FF19C0E5FF6A
:104860001AC0E5FF1BC0E5FF1CC0E5FF1DC0E5FF4A
:10487000C2CF00F0C0CF01F0D5CF02F0D6CF03F009
:10488000D7CF04F0010EC26E3F0EC06E880ED56EFB
:10489000056A066A076A086A096A0A6AFBEC5BF03D
:1048A0000B6EF3CF0CF0F4CF0DF0E9CF0EF00F6AE2
:1048B000D76AD66AC2820400C2B2FED7D6500201BD
:1048C0008D6FD75002018E6FFBEC5BF0106EF3CF53
:1048D00011F0F4CF12F0E9CF13F08DC212F08EC2B6
:1048E00013F0146A156A125005261350062214504C
:1048F000072215500822000E085C08E19E0E075C96
:1049000005E1F20E065C02E11A0E055CD8A048D063
:10491000FBEC5BF0126EF3CF13F0F4CF14F0E9CFA1
:1049200015F0FBEC5BF0166EF3CF17F0F4CF18F038
:10493000E9CF19F0183017301D6E1C6A1C32164072
:10494000800B1B6E1650E8407F0B1C121A6A1A501F
:1049500012121B5013121C5014121D501512FBEC96
:104960005BF0166EF3CF17F0F4CF18F0E9CF19F023
:104970001640E840C00B1D6E1A6A1B6A1C6A1A506A
:1049800012121B5013121C5014121D5015121250EB
:104990000B1A13500C1A14500D1A15500E1A47D03A
:1049A000095002018D1905E10A5002018E1901E139
:1049B0007FD702018D51095C126E02018E510A5897
:1049C000136E1250102613501122126A136A1350DC
:1049D000E56E1250E56E1150E56E1050E56E20EC5C
:1049E0005EF0040EE1268DC209F08EC20AF00B5073
:1049F0000B260C360D360E36FBEC5BF0106EF3CF4B
:104A000011F0F4CF12F0E9CF13F01350800F800FA4
:104A100008E1000E125C05E1400E115C02E1000E9F
:104A2000105C01E30B800F2A0F50D8A441D700C0BF
:104A3000C2FF01C0C0FF04C0D7FF03C0D6FF02C041
:104A4000D5FF0EC0E9FF0DC0F4FF0CC0F3FF0B5003
:104A5000E4CF1DF0E4CF1CF0E4CF1BF0E4CF1AF05C
:104A6000E4CF19F0E4CF18F0E4CF17F0E4CF16F05C
:104A7000E4CF15F0E4CF14F0E4CF13F0E4CF12F05C
:104A8000E4CF11F0E4CF10F0E4CF0FF0E4CF0EF05C
:104A9000E4CF0DF0E4CF0CF0E4CF0BF0E4CF0AF05C
:104AA000E4CF09F0E4CF08F0E4CF07F0E4CF06F05C
:104AB000E4CF05F0E4CF04F0E4CF03F0E4CF02F05C
:104AC000E4CF01F0E4CF00F0E4CFD9FF1200D9CF5A
:104AD000E5FFE1CFD9FF00C0E5FF01C0E5FF02C05F
:104AE000E5FF03C0E5FF04C0E5FF05C0E5FF06C024
:104AF000E5FF07C0E5FF08C0E5FF09C0E5FF0AC004
:104B0000E5FF0BC0E5FF0CC0E5FF0DC0E5FF0EC0E3
:104B1000E5FF020EDBCF00F0030EDBCF01F0040E49
:104B2000DBCF02F00B0E046EFC0E036E800E056EE2
:104B30000550E56E0450E56E0350E56E3AEC51F019
:104B4000030EE126000EE56E430EE56E000EE56EE7
:104B5000000EE56E000EE56E000EE56E000EE56ED1
:104B60003BEC29F0036E070EE12603C0A5F2000E10
:104B7000E56E000EE56E000EE56E000EE56E000EB1
:104B8000E56E000EE56E430EE56E3BEC29F0046E1B
:104B9000070EE12604C0A6F2000EE56E440EE56E97
:104BA000000EE56E000EE56E000EE56E000EE56E81
:104BB000000EE56E3BEC29F0056E070EE12605C000
:104BC000A7F2066A0350FF0A02E106500DE0036AED
:104BD0000450FF0A02E1035007E0036A0550FF0A90
:104BE00002E1035001E00DD0000EE56E9B0EE56E74
:104BF000060EE56E000EE56E6AEC50F0040EE1263E
:104C0000A4D09180020E046EA50E036E800E056E78
:104C10000550E56E0450E56E0350E56ECCEC38F0BF
:104C2000030EE126080E046EFB0E036E800E056E69
:104C30000550E56E0450E56E0350E56E26EC0FF06E
:104C4000030EE1260201A651E56E60EC5AF0036EF8
:104C5000F3CF04F0E12A03500410D4E0080E046EF0
:104C6000FB0E036E800E056E0B0E076EFC0E066EBD
:104C7000800E086E0850E56E0750E56E0650E56E32
:104C80000550E56E0450E56E0350E56ED3EC47F039
:104C9000036E060EE12603501DE0020E046EA70E01
:104CA000036E800E056E020E076EA60E066E800E57
:104CB000086E0850E56E0750E56E0650E56E05502B
:104CC000E56E0450E56E0350E56E62EC19F0060ED9
:104CD000E12698D7020E046EA50E036E800E056EB7
:104CE000020E076EA70E066E800E086E020E0A6E8A
:104CF000A60E096E800E0B6E080E0D6EFB0E0C6E6E
:104D0000800E0E6E0E50E56E0D50E56E0C50E56E89
:104D10000250E56E0150E56E0050E56E0B50E56EF9
:104D20000A50E56E0950E56E0850E56E0750E56ED5
:104D30000650E56E0550E56E0450E56E0350E56ED5
:104D4000F8EC06F00F0EE1265DD7E4CF0EF0E4CFCD
:104D50000DF0E4CF0CF0E4CF0BF0E4CF0AF0E4CF99
:104D600009F0E4CF08F0E4CF07F0E4CF06F0E4CF99
:104D700005F0E4CF04F0E4CF03F0E4CF02F0E4CF99
:104D800001F0E4CF00F0E4CFD9FF1200D9CFE5FF66
:104D9000E1CFD9FF00C0E5FF01C0E5FF02C0E5FF9C
:104DA00003C0E5FF04C0E5FF05C0E5FF06C0E5FF61
:104DB00007C0E5FF0E01515106E00E015151010AF5
:104DC00001E1C4D00FD10E0E016E610E006E800E97
:104DD000026E000EE56E1C0EE56E0250E56E01508F
:104DE000E56E0050E56EACEC4EF0050EE12681EC70
:104DF00056F00E0E016E610E006E800E026E0250B5
:104E0000E56E0150E56E0050E56E1DEC42F0030EBC
:104E1000E1260E016151010A03E10E01625101E038
:104E200008D00E016551060A04E10E016651040A1C
:104E300002E0010ED8D067CE00F068CE01F000503D
:104E4000020A02E1015001E032D00B0E036EB80EEF
:104E5000026E800E046E0E0E066E690E056E800EDA
:104E6000076E000EE56E060EE56E0750E56E065005
:104E7000E56E0550E56E0450E56E0350E56E025098
:104E8000E56E7BEC4AF0080EE1260E016F510B0136
:104E9000B46F0E0170510B01B56F0E0171510B0112
:104EA000B66F0E0172510B01B76F010E9CD000500E
:104EB000010A02E1015001E049D00E0179510801D7
:104EC000C8190FE10E017A510801C9190AE10E0152
:104ED0007B510801CA1905E10E017C510801CB196B
:104EE00002E0010E80D00E016F510B01BE6F0E016A
:104EF00070510B01BF6F0E0171510B01C06F0E019C
:104F000072510B01C16F0B0E016EC20E006E800E4E
:104F1000026E0E0E046E690E036E800E056E000E9C
:104F2000E56E060EE56E0550E56E0450E56E035025
:104F3000E56E0250E56E0150E56E0050E56E7BECCB
:104F40004AF0080EE126010E0E01516F020E0E010D
:104F5000676F0E01686B0E0E016E730E006E800E91
:104F6000026E0B0E046EC20E036E800E056E000EF6
:104F7000E56E060EE56E0550E56E0450E56E0350D5
:104F8000E56E0250E56E0150E56E0050E56E7BEC7B
:104F90004AF0080EE1260B01BE510E01796F0B019C
:104FA000BF510E017A6F0B01C0510E017B6F0B01D7
:104FB000C1510E017C6F0E0E016E610E006E800EEF
:104FC000026E0250E56E0150E56E0050E56E3CEC5D
:104FD00033F0006E030EE126005002E1E86A03D0D0
:104FE0000E01516B010EE4CF07F0E4CF06F0E4CFE1
:104FF00005F0E4CF04F0E4CF03F0E4CF02F0E4CF17
:1050000001F0E4CF00F0E4CFD9FF1200D9CFE5FFE3
:10501000E1CFD9FF00C0E5FF01C0E5FF02C0E5FF19
:1050200003C0E5FF04C0E5FF05C0E5FF06C0E5FFDE
:1050300007C0E5FF08C0E5FF020EE56E000EE56E55
:10504000C8EC5AF0020EE126480E006E0D0E016EFD
:10505000026A036A00C004F001C005F002C006F055
:1050600003C007F0FF0E0026FF0E0122FF0E0222F2
:10507000FF0E03220450051006100710EBE1006A32
:1050800000C001F0026A000E025C02E1100E015C39
:10509000D8B057D0220E0024016E026A0E0E0222F2
:1050A00001C0E9FF02C0EAFFEFCF01F0015019E1B2
:1050B00000C001F001C002F0036A000E035C02E1CF
:1050C000100E025C0EE2220E0124026E036A0E0E26
:1050D000032202C0E9FF03C0EAFF200EEF6E012A9F
:1050E000E9D7220E0024016E026A0E0E022201C0D0
:1050F000E9FF02C0EAFFEFCF01F00150E56E010EBB
:10510000E56EC8EC5AF0020EE126550E016E026AF9
:10511000036A046A01C005F002C006F003C007F08C
:1051200004C008F0FF0E0126FF0E0222FF0E03222C
:10513000FF0E04220550061007100810EBE1002AAC
:105140009FD7C00EE56E000EE56EC8EC5AF0020E59
:10515000E126550E006E016A026A036A00C004F07F
:1051600001C005F002C006F003C007F0FF0E0026E4
:10517000FF0E0122FF0E0222FF0E03220450051033
:1051800006100710EBE1100E006E00C001F0026A7D
:10519000000E025C02E1200E015CD8B057D0220E56
:1051A0000024016E026A0E0E022201C0E9FF02C055
:1051B000EAFFEFCF01F0015019E100C001F001C09A
:1051C00002F0036A000E035C02E1200E025C0EE2B4
:1051D000220E0124026E036A0E0E032202C0E9FFB2
:1051E00003C0EAFF200EEF6E012AE9D7220E002449
:1051F000016E026A0E0E022201C0E9FF02C0EAFF40
:10520000EFCF01F00150E56E010EE56EC8EC5AF0EB
:10521000020EE126550E016E026A036A046A01C09D
:1052200005F002C006F003C007F004C008F0FF0E4E
:105230000126FF0E0222FF0E0322FF0E042205505C
:10524000061007100810EBE1002A9FD7E4CF08F002
:10525000E4CF07F0E4CF06F0E4CF05F0E4CF04F0AC
:10526000E4CF03F0E4CF02F0E4CF01F0E4CF00F0AC
:10527000E4CFD9FF1200D9CFE5FFE1CFD9FF00C0BD
:10528000E5FF01C0E5FF02C0E5FF03C0E5FF04C084
:10529000E5FF05C0E5FF06C0E5FF07C0E5FF08C064
:1052A000E5FF09C0E5FF0AC0E5FF0BC0E5FF0CC044
:1052B000E5FF0DC0E5FF0EC0E5FF0FC0E5FF10C024
:1052C000E5FF11C0E5FF12C0E5FF13C0E5FF020EC8
:1052D000DBCF00F0030EDBCF01F0040EDBCF02F0DA
:1052E000050EDBCF03F0060EDBCF04F0070EDBCF9D
:1052F00005F0080EDBCF06F0000E086E600E076E9C
:10530000800E096E0A6A07C00BF008C00CF009C0D5
:105310000DF00E6A0EC00FF0106A000E105C02E174
:105320000A0E0F5CD8B0ACD00B500C0F0F6E000EF5
:105330000C20106E000E0D20116E0FC0E9FF10C082
:10534000F3FF1150CBEC5DF0126EF3CF13F012505F
:105350001310D8A485D000C0E5FF01C0F4FF0FC032
:10536000E9FF10C0F3FF115008EC5FF0005001108E
:1053700032E1200E02019E5D03E1010E02019D5DFE
:1053800008E2100E02019E5D03E1000E02019D5D28
:1053900005E202019D6B100E02019E6F07500C0F7B
:1053A0000F6E000E0820106E000E0920116E9DC2B7
:1053B00012F09EC213F002019D2B02E302019E2B0C
:1053C00012C0E5FF13C0F4FF0FC0E9FF10C0F3FFE8
:1053D000115008EC5FF002500310041015E0000EAD
:1053E000E56E0A0EE56E0450E56E0350E56E025060
:1053F000E56E0950E56E0850E56E0750E56E7BECF2
:105400004AF0080EE12614D007C00FF008C010F0D3
:1054100009C011F0000EE56E0A0EE56EFF0EE56E96
:105420001050E56E0F50E56ED5EC50F0050EE126FC
:1054300007500A0F0F6E000E0820106E000E092094
:10544000116E05C0E5FF06C0F4FF0FC0E9FF10C0F4
:10545000F3FF115008EC5FF00AC0B7F20A5011D008
:105460000E0E0B26000E0C22000E0D220BC007F0B4
:105470000CC008F00DC009F00E2A0EC00AF04AD781
:10548000E868E4CF13F0E4CF12F0E4CF11F0E4CFFA
:1054900010F0E4CF0FF0E4CF0EF0E4CF0DF0E4CF46
:1054A0000CF0E4CF0BF0E4CF0AF0E4CF09F0E4CF46
:1054B00008F0E4CF07F0E4CF06F0E4CF05F0E4CF46
:1054C00004F0E4CF03F0E4CF02F0E4CF01F0E4CF46
:1054D00000F0E4CFD9FF1200D9CFE5FFE1CFD9FF2B
:1054E00000C0E5FF01C0E5FF02C0E5FF03C0E5FF26
:1054F00004C0E5FF05C0E5FF06C0E5FF07C0E5FF06
:1055000008C0E5FF09C0E5FF0AC0E5FF0BC0E5FFE5
:105510000CC0E5FF0DC0E5FF0EC0E5FF0FC0E5FFC5
:1055200010C0E5FF11C0E5FF12C0E5FF13C0E5FFA5
:1055300014C0E5FF020EDBCF00F0030EDBCF01F05D
:10554000040EDBCF02F0050EDBCF03F0060EDBCF3F
:1055500004F0070EDBCF05F0080EDBCF06F0090ED6
:10556000DBCF07F00A0EDBCF08F00B0EDBCF09F024
:105570000C0EDBCF0AF00D0EDBCF0BF00C6A0D6AC0
:105580000E6A0F6A106A0E50800F800F02E10A0E39
:105590000D5CD8B0A1D00C50D8A49ED0000E0F2422
:1055A000116E080E1020126E1250126E1150116EF4
:1055B000800E136E1350E56E1250E56E1150E56EBD
:1055C000BBEC52F0116E030EE1261150D8B47CD022
:1055D000000E0F24116E080E1020126E1250126E63
:1055E0001150116E800E136E000EE56E040EE56E06
:1055F0000250E56E0150E56E0050E56E1350E56E09
:105600001250E56E1150E56E7BEC4AF0080EE12673
:10561000000E0F24116E080E1020126E040E1126BB
:10562000D8B0122A1250126E1150116E800E136EE5
:10563000000EE56E060EE56E0550E56E0450E56E53
:105640000350E56E1350E56E1250E56E1150E56E95
:105650007BEC4AF0080EE126000E0F24116E080EB6
:105660001020126E11500A0F136E000E1220146ECD
:1056700013C0E9FF14C0EAFF2C0EEE6E010EEE6EB1
:10568000000EEE6E000EEF6E11500E0F136E000E38
:105690001220146E13C0E9FF14C0EAFF06C0EEFF2B
:1056A00007C0EEFF08C0EEFF09C0EFFF120E112683
:1056B000D8B0122A11C0E9FF12C0EAFF0AC0EEFFFB
:1056C0000BC0EFFF010E0C6E140E0F26D8B0102A7F
:1056D0000D2AD8B00E2A57D70C50E4CF14F0E4CFDF
:1056E00013F0E4CF12F0E4CF11F0E4CF10F0E4CFE8
:1056F0000FF0E4CF0EF0E4CF0DF0E4CF0CF0E4CFE8
:105700000BF0E4CF0AF0E4CF09F0E4CF08F0E4CFE7
:1057100007F0E4CF06F0E4CF05F0E4CF04F0E4CFE7
:1057200003F0E4CF02F0E4CF01F0E4CF00F0E4CFE7
:10573000D9FF1200D9CFE5FFE1CFD9FF00C0E5FFC7
:1057400001C0E5FF02C0E5FF03C0E5FF04C0E5FFBF
:1057500005C0E5FF06C0E5FF07C0E5FF08C0E5FF9F
:10576000000EE56E200EE56E200EE56E0E0EE56E67
:10577000220EE56ED5EC50F0050EE1260E01426BCF
:1057800090909092966A999299949990A00E006E3A
:10579000090E016E010E026E036A00C004F001C022
:1057A00005F002C006F003C007F0FF0E0026FF0E52
:1057B0000122FF0E0222FF0E0322045005100610E4
:1057C0000710EBE19094030E8D6E00000000006A5C
:1057D00000C001F0026A000E025C02E1030E015CEF
:1057E00039E29080110E016E026A036A046A01C0F8
:1057F00005F002C006F003C007F004C008F0FF0E79
:105800000126FF0E0222FF0E0322FF0E0422055086
:10581000061007100810EBE19090480E016E0D0E77
:10582000026E036A046A01C005F002C006F003C0FC
:1058300007F004C008F0FF0E0126FF0E0222FF0E43
:105840000322FF0E04220550061007100810EBE19A
:10585000002ABED7380EE56E000EE56EC8EC5AF091
:10586000020EE126550E006E016A026A036A00C04C
:1058700004F001C005F002C006F003C007F0FF0EFF
:105880000026FF0E0122FF0E0222FF0E032204500B
:10589000051006100710EBE1060EE56E000EE56E32
:1058A000C8EC5AF0020EE126550E006E016A026A3B
:1058B000036A00C004F001C005F002C006F003C096
:1058C00007F0FF0E0026FF0E0122FF0E0222FF0E40
:1058D00003220450051006100710EBE10C0EE56ED4
:1058E000000EE56EC8EC5AF0020EE126550E006E71
:1058F000016A026A036A00C004F001C005F002C038
:1059000006F003C007F0FF0E0026FF0E0122FF0E77
:105910000222FF0E03220450051006100710EBE1CF
:10592000010EE56E000EE56EC8EC5AF0020EE1269F
:10593000480E006E0D0E016E026A036A00C004F08C
:1059400001C005F002C006F003C007F0FF0E0026FC
:10595000FF0E0122FF0E0222FF0E0322045005104B
:1059600006100710EBE1E4CF08F0E4CF07F0E4CF36
:1059700006F0E4CF05F0E4CF04F0E4CF03F0E4CF89
:1059800002F0E4CF01F0E4CF00F0E4CFD9FF120041
:10599000D9CFE5FFE1CFD9FF00C0E5FF01C0E5FFAA
:1059A00002C0E5FF03C0E5FF04C0E5FF05C0E5FF59
:1059B00006C0E5FF07C0E5FF08C0E5FF09C0E5FF39
:1059C0000AC0E5FF0BC0E5FF0CC0E5FF0DC0E5FF19
:1059D0000EC0E5FF0FC0E5FF020EDBCF00F0030EA7
:1059E000DBCF01F0040EDBCF02F0050EDBCF03F0BE
:1059F000060EDBCF04F0070EDBCF05F0080EDBCF81
:105A000006F0090EDBCF07F00A0EDBCF08F00B0E15
:105A1000DBCF09F00C0EDBCF0AF00D0EDBCF0BF065
:105A2000010E0D6EEA0E0C6E800E0E6E000EE56E0F
:105A3000140EE56E0E50E56E0D50E56E0C50E56EE1
:105A4000ACEC4EF0050EE126F00E0101EA150C6EED
:105A50000D6A0C50400A02E10D5002E0E86AA0D045
:105A60000101F0511F0B03E10101F15102E0E86A6D
:105A700097D00F0E0101EA150C6E0C44E844FC0BA4
:105A80000201B26FB2C20CF00D6A0D50E56E0C50FF
:105A9000E56E000EE56E000EE56E16EC45F00C6E40
:105AA000F3CF0DF0040EE1260C500201956F0D505E
:105AB0000201966FB2C20CF00D6A0D50E56E0C50EB
:105AC000E56E02EC52F0020EE12602019551020150
:105AD000961102E0E86A64D0010E0D6EEA0E0C6EBB
